:020000040800F2
:10000000A4060020550400089D0400089D04000873
:100010009D0400089D0400089D04000800000000E5
:100020000000000000000000000000009D04000827
:100030009D040008000000009D0400089D040008C5
:100040009D0400089D0400089D0400089D0400080C
:100050009D0400089D0400089D0400089D040008FC
:10006000C90800089D0400089D0400089D040008BC
:100070009D0400089D0400089D0400089D040008DC
:100080009D0400089D0400089D0400089D040008CC
:100090009D0400089D0400089D0400089D040008BC
:1000A0009D0400089D0400089D0400080109000843
:1000B0009D0400089D0400089D0400089D0400089C
:1000C0009D0400089D0400089D0400089D0400088C
:1000D0009D0400089D0400089D0400089D0400087C
:1000E0009D0400089D0400089D0400089D0400086C
:1000F0009D0400089D0400089D0400089D0400085C
:100100009D0400089D0400089D0400089D0400084B
:100110009D0400089D0400089D0400089D0400083B
:100120009D0400089D0400089D0400089D0400082B
:100130005FF808F1224A038890429BB212D002F580
:10014000006290420ED0B0F1804F0BD0A2F59832F1
:10015000904207D002F58062904203D002F580629F
:10016000904203D14A8823F070031343154A90420A
:1001700008D002F58062904204D023F44073CA880C
:100180009BB2134303808B8883850B8803850C4BBC
:1001900098420FD003F5006398420BD003F54063FB
:1001A000984207D003F58063984203D003F580633B
:1001B000984201D10B7A038601238382704700BFE6
:1001C000002C014000100040038C70B523F00103A7
:1001D0001B041B0C0384038C8488028B0D8822F083
:1001E00073021204120C2A434E880D8923F0020375
:1001F0001B0435431B0CADB22B43144DA4B2A842D3
:100200000FD005F50065A8420BD005F54065A84262
:1002100007D005F58065A84203D005F58065A842A2
:100220000ED14D8923F008032B438D8823F004035E
:100230002B43CE898D8924F440743543ADB22C43D1
:1002400084800283CA888286038470BD002C0140AA
:10025000038C30B523F010031B041B0C0384038CA8
:100260008288048B0D8824F4E6442404240C23F0B3
:10027000200344EA05241B040D891B0C43EA0513E3
:100280004D8892B243EA0513124DA4B2A8429BB224
:1002900003D005F50065A84215D14D8923F08003F0
:1002A0009BB243EA05134FF6BF751D408B8822F4BD
:1002B000406245EA03138D899BB242EA8502CD89EB
:1002C00042EA850292B28280CA880483028703844C
:1002D00030BD00BF002C0140038819B19BB243F030
:1002E000010303E023F001031B041B0C0380704790
:1002F00083899BB20AB1194301E023EA010181819C
:100300007047038819B19BB243F0800303E023F0E8
:1003100080031B041B0C03807047038B23F008032E
:100320001B041B0C0B4303837047038B23F40063F4
:100330001B041B0C43EA01239BB203837047038A0F
:10034000828911EA030092B203D011420CBF00204F
:1003500001207047C94389B201827047394B82B08E
:100360001A6842F001021A605968374A0A405A6016
:100370001A6822F0847222F480321A601A6822F419
:1003800080221A605A6822F4FE025A604FF41F025B
:100390009A600022009201921A6842F480321A6038
:1003A0001A6802F400320192009A01320092019A16
:1003B0001AB9009AB2F5A06FF2D1224B1B6813F460
:1003C000003318BF01230193019B012B33D11F4B35
:1003D0001A6842F010021A601A6822F003021A60CA
:1003E0001A6842F002021A60A3F580535A685A60F4
:1003F0005A685A605A6842F480625A605A6822F415
:100400007C125A605A6842F4E8125A601A6842F044
:1004100080721A6019680B4A8901FBD5536823F072
:1004200003035360536843F002035360536803F0BF
:100430000C03082BFAD1064B4FF000629A6002B011
:10044000704700BF001002400000FFF8002002408B
:1004500000ED00E008B50C4A0C4B0D4903E052F8E2
:10046000040B43F8040B8B42F9D30A480A494FF0B6
:1004700000028842B8BF40F8042BFADBFFF76EFF9A
:10048000BDE8084000F092BB2432000800000020C4
:10049000D0000020D0000020A4020020FEE70000D1
:1004A00070B584684568C36825431D430369C16A04
:1004B0001D43436902681D438369082C45EA03050F
:1004C000C36945EA0305036A45EA0305436A45EA49
:1004D0000305836A45EA0305036B45EA010545EA1E
:1004E00003054FF0204343F8225005D153F8224032
:1004F00044F0400443F82240436B541C9E691D683D
:10050000B1F5804F46EA05055E6845EA06159E6826
:1005100045EA0625DE6845EA06451E695B6945EA47
:10052000065545EA03654FF0204343F8245010D1A7
:10053000836B986919680143586841EA001198680B
:1005400041EA002118695B6941EA005141EA03610F
:1005500001E06FF07041024B43F8221070BD00BF04
:10056000040100A04FF0204321B153F8202042F0B5
:10057000010203E053F82010024A0A4043F8202009
:10058000704700BFFEFF0F00CB782DE9F04303F06A
:100590000F02DB0648BF8B780E8848BF1A4316F05F
:1005A000FF0F1FD0046800234FF001084FF00F0C1D
:1005B00008FA03F707EA0605BD420FD19F000CFABF
:1005C00007F912FA07F724EA09043C43CF78282FE9
:1005D00001D1456102E0482F08BF05610133082BB6
:1005E000E6D104600E88FF2E21D9446800234FF025
:1005F00001084FF00F0C03F1080708FA07F707EAA4
:100600000605BD420FD19F000CFA07F912FA07F751
:1006100024EA09043C43CF78282F01D1456102E048
:10062000482F08BF05610133082BE4D14460BDE8C1
:10063000F083C36819420CBF0020012070470AB143
:10064000016170474161704730B5174B002800F4D5
:100650004014B4BFDB695B68B4F5401F82B207D1B8
:10066000114C23F07063656825F0706565600FE0DC
:10067000C40205D5C0F30344032515FA04F403E0CE
:10068000440D240112FA04F423EA040343F07063D6
:1006900019B1410D09018A401343034A0028B4BF30
:1006A000D361536030BD00BF0000014001F0030280
:1006B00030B592000F24944010FA02F2074B8908DB
:1006C000023153F8215025EA040443F8214053F83D
:1006D0002140224343F8212030BD00BF00000140EB
:1006E00073B51F4DAB682D2B2B4602DC1D4A52689B
:1006F000A2B100229A6009244FF4FC6590202146A3
:10070000EA222346013C009501F0CBF9032CF5D1F8
:10071000144B5A6812B30020586020E00924A868DE
:1007200021469030013C002280B2A4B201F0A8F929
:10073000032CF4D10A4E0924B0682146C0F1EA0026
:10074000013C002280B2A4B201F09AF9032C044DBE
:10075000F2D1AB6800200133AB6000E001207CBD2A
:10076000D00000201400002010B500F0C7FA4FF4AC
:10077000803000F0E3FA00F0BBFB0128044624D1EE
:10078000002000F019FB002000F02AFB4FF48060ED
:1007900000F01CFB022000F00DFC102000F014FC07
:1007A0004FF480304FF4E01100F0E4FA204600F0FE
:1007B000EBFA392000F086FB0028FAD0022000F086
:1007C000E9FA00F0F1FA0828FBD140F659000121BE
:1007D000BDE8104000F05EBB37B5082001210E4D8A
:1007E00000F058FB042303240DEB03012846ADF869
:1007F00004308DF807308DF80640FFF7C5FE102352
:10080000284601A9ADF804408DF807308DF8064060
:10081000FFF7BAFE3EBD00BF000C014030B54FF4FB
:10082000C06085B001F052FA01240823002503A816
:100830008DF80C308DF80D508DF80E508DF80F405E
:1008400001F04EFA20460221FFF730FF0423019306
:1008500001A810238DF809308DF808508DF80A4052
:1008600000F05CFB1B2303A88DF80C308DF80D50B5
:100870008DF80E408DF80F4001F032FA05B030BD12
:100880002DE9F0470C46BDF820800546871801EB9E
:10089000030A08E0B1B24846424601F0F1F80136D9
:1008A0005645F7DB0135BD4203DA26461FFA85F9C6
:1008B000F6E7BDE8F0870000024BDA6882F002023A
:1008C000DA607047000C014008B5042000F062FBBC
:1008D00098B101210948FFF7ACFEC0F1010010F00A
:1008E000FF0F14BF0022012204480121FFF7A7FED9
:1008F0000420BDE8084000F057BB08BD000C0140D3
:1009000010B519480221FFF71AFD60B316480221FD
:10091000FFF720FD154B9C68462394FBF3F203FB85
:1009200012432BB1482394FBF3F203FB12430BB9A0
:10093000FFF7C2FF502394FBF3F203FB12432BB1EA
:10094000582394FBF3F203FB124323B9084BDA68F4
:1009500082F00102DA60582C044B01D101229A6026
:100960009A6801329A6010BD002C014014000020EA
:10097000000C014070B5184C88B04FF6FF7300268C
:10098000ADF8183020460E2305A90125ADF8143026
:10099000ADF81A60ADF81660FFF7CCFB4FF40043DA
:1009A000204601A9ADF80A30ADF80460ADF8065054
:1009B000ADF80C60FFF708FC20463146FFF7ADFCB0
:1009C000204602212A46FFF793FC20462946FFF7DE
:1009D00083FC08B070BD00BF002C01402DE9F3413D
:1009E00028B1224B0124DC60214C1861E160002A0F
:1009F00039D01E4BDB68002B35D0002620231B4C42
:100A000004F11407F35501361F2EF8D1D4F81080E5
:100A1000002584F83250404601F052FF414602461C
:100A2000384601F0CFFF616B114BC8319B8989B209
:100A300028463A46009501F0C2F8636B5A220F33FC
:100A400093FBF2F102FB1131C831636389B2334683
:100A50002846084A009501F0B2F8636B592B034B06
:100A6000C8BF6563DD60BDE8FC8100BFD000002029
:100A700014000020922B000807B54FF6E073002009
:100A80004FF49171024A009001F099F80EBD00BF39
:100A90008202002007B500238DF8040005488DF878
:100AA000053001F00DFF1E2803D8024801A901F00E
:100AB00083FE0EBD820200202DE9F04F042087B096
:100AC00000251421F022C3230095FFF7D9FE334EF1
:100AD0002C464FF6FF7B4FF00E0A94FBFAF34FF0D3
:100AE000780909FB03F90AFB13432D4A4FF00F0A5B
:100AF0000AFB03FAA35C00272A488DF80C308DF816
:100B00000D7001F0DDFED6F8008002464146254812
:100B100001F006FFC11BD1F1000848EB01080AF102
:100B2000140A1FFA89F9B84509F104001FFA8AFA74
:100B30000CBF43465B46514603AA80B218BF01254D
:100B4000009701F03CF8184801F0BAFE56F8041B73
:100B500001380918072203A801F034FF9DF80C3072
:100B600023B920238DF80C308DF80D70002209F187
:100B70001709B8F1000F14BF5B46002300921FFA5B
:100B800089F0514603AA01348DF8137001F017F86B
:100B90001A2CA0D1284607B0BDE8F08F2400002011
:100BA000980000208302002082020020454B2DE99E
:100BB000F7430024444D1C7020232B706B70FFF70B
:100BC000CDFB01F0C9F800F029FA01F01DF820462C
:100BD00000F042FFFFF7C8FDFFF7FEFDFFF71EFE26
:100BE00020462146394A4FF6FF73009400F0E7FF94
:100BF0004FF6FF732D2040F23111354A009400F07A
:100C0000DEFF34490422284601F0DCFEFFF754FFE2
:100C100004241F2100222F48FFF7E0FE013CF8D1F9
:100C2000FFF7A8FE4FF47A7001F0B2F82A4D2B4C72
:100C3000254EA868D4F89C30013310F00400C4F8A5
:100C40009C3004D0D4F8A0300133C4F8A030FFF7B2
:100C500047FD88B3D4F8A00001F044FA8046D4F8E8
:100C60009C00894601F03EFA02460B464046494642
:100C700001F0C8FB00221A4B01F02AFD08B1312017
:100C800000E05F20FFF706FFFFF716FF074670B989
:100C9000144902220C4801F04DFD38464FF4917181
:100CA000094A4FF6E073009700F089FF7770002340
:100CB000C4F89C30C4F8A030FFF7DEFE192001F024
:100CC00067F8B6E78201002082020020EF2B0008BF
:100CD000012C0008312C0008000C0140D00000203D
:100CE0000000E03F1A2C0008034B203903EB0111F0
:100CF000102201F01FBD00BF332C00080D4B1A68F5
:100D000042F001021A6059680B4A0A405A601A6898
:100D100022F0847222F480321A601A6822F480224F
:100D20001A605A6822F4FE025A604FF41F029A6059
:100D3000704700BF001002400000FFF80C4BB0F5F8
:100D4000803F1A6822F480321A601A6822F48022E6
:100D50001A6003D0B0F5802F09D104E01A6842F47C
:100D600080321A6070471A6842F4A0221A607047F5
:100D700000100240034B5A6822F47C1210430843CF
:100D80005860704700100240014B1860704700BF68
:100D900060004242034B5A6822F00302104358603D
:100DA000704700BF00100240024B586800F00C0072
:100DB000704700BF00100240034B5A6822F0F00257
:100DC00010435860704700BF00100240034B5A6840
:100DD00022F4E06210435860704700BF00100240E8
:100DE000034B5A6822F4605242EAC00058607047D0
:100DF0000010024010B51D4B5A6802F00C02042A84
:100E000001D0082A02D01A4B03600EE05A685968D4
:100E1000C2F383420232C90302D55B689B0301D54A
:100E2000144B00E0124B5A430260104A124B5168B7
:100E30000468C1F30311595C34FA01F1416054684C
:100E4000C4F302241C5D31FA04F484605468C4F3D2
:100E5000C2241C5DE140C1605268C2F381329B181C
:100E60001B7CB1FBF3F1016110BD00BF001002401B
:100E700000127A0000093D00B8000020044B5A69B6
:100E800009B1104301E022EA00005861704700BF39
:100E900000100240044B9A6909B1104301E022EAB4
:100EA00000009861704700BF00100240044BDA69EF
:100EB00009B1104301E022EA0000D861704700BF89
:100EC000001002404209012A084B01D11B6803E0CF
:100ED000022A0CBF1B6A5B6A012200F01F0012FA93
:100EE00000F003420CBF00200120704700100240B8
:100EF00007B5002301933120FFF7E4FF019B013385
:100F00000193019BB3F5A06F01D00028F3D03120ED
:100F1000FFF7D8FF003018BF01200EBD837910B550
:100F2000002B29D01A4B01681C68CA4314401C606E
:100F30005C6822405A60027902F1804202F58232F6
:100F400014682143116002689C68D1430C409C6086
:100F5000DC682140D9604179102906D19968114394
:100F60009960D9680A43DA6010BD01F1804303F546
:100F7000823319680A4308E00379016803F180436A
:100F800003F582331A6822EA01021A6010BD00BF1D
:100F900000040140034B5B6918420CBF0020012094
:100FA000704700BF00040140014B5861704700BF0B
:100FB00000040140034B1A6802F038021043186025
:100FC000704700BF00200240044B1A6822F0100254
:100FD0001A601A6810431860704700BF0020024072
:100FE0000C4B30B51C8848F689139C424FF0C04228
:100FF000094B03D049F61915AC4204D14E24148094
:1010000018804F2003E020241480188021201080B5
:10101000198030BD78010020000002602DE9F04FFA
:10102000012199B04FF48070FFF728FF6120012162
:10103000FFF730FF18244FF680730325AF4817A938
:10104000ADF85C308DF85F408DF85E50FFF79CFA8C
:1010500017A94CF6B373AA48ADF85C308DF85F4021
:101060004FF01E08002410260DF140098DF85E5047
:10107000FFF78AFA4FF4805301A80A930227CDF8AC
:1010800040801194CDF848801394149415941694CC
:101090000194029403940496059407940894099487
:1010A0000B9406940C940D94CDF83890FFF7F8F952
:1010B00001A81097119412971394149415941694F0
:1010C000CDF83C90FFF7ECF901212046FFF74AFAF2
:1010D0004FF0C0408B490480B1F800C08A4B1FFA22
:1010E0008CFCA3F800C049F225339C4502460B4610
:1010F00004D049F22839CC4540F00881E72111801D
:101100001020002101244FF48075188011801C806C
:1011100014801D80022515804FF4E0651D80032694
:1011200005F5136516804FF0040C1D800825A2F804
:1011300000C01980158040F207251D800925158003
:101140000A25198015800C25198015800D251C8015
:101150000F2715804FF0110A07254FF012094FF0A5
:10116000130841F2905B1980178019801080198054
:10117000A2F800A01D80A2F800901980A2F80080BB
:1011800019801080A3F800B0A2F800A040F2272A2E
:10119000A3F800A0A2F800904FF09C09A3F80090DB
:1011A000A2F800804FF4C858A3F800804FF0290837
:1011B000A2F800804FF02308A3F800804FF02B081E
:1011C000A2F800804FF00E08A3F800804FF020092D
:1011D0004FF021084FF0300AA2F800901980A2F8D1
:1011E00000801980A2F800A04FF0310A1D80A2F8FB
:1011F00000A040F2077AA3F800A04FF0320AA2F84C
:1012000000A04FF0060AA3F800A04FF0350AA2F89C
:1012100000A040F2047AA3F800A04FF0360AA2F82A
:1012200000A041F6047AA3F800A04FF0370AA2F814
:1012300000A0A3F800C04FF0380CA2F800C04FF097
:10124000390C1980A2F800C040F2067CA3F800C057
:101250004FF03C0CA2F800C040F2017CA3F800C0A3
:101260004FF03D0CA2F800C01F8050271780512777
:1012700019801780EF271F80522717805327198066
:101280001780EC371F80602717804FF427471F8097
:10129000612717801C806A241480802419801480A0
:1012A0008124198014808224198014808324198059
:1012B000148084241980148085241980148090243B
:1012C000198014801880922010809320198010803B
:1012D00095201E8010804FF4887018809720108011
:1012E0009820198010809B30198015801880A2F8F2
:1012F00000901980A2F800801980AAE3001801402C
:1013000000140140000002607801002049F22033FF
:101310009C4503D0BCF5134F40F08D80A64B4FF099
:10132000C042002101204FF4807411801980108088
:101330001C80022414804FF4E0641C800324148079
:1013400041F218041C80042414800824198014809D
:1013500004F5FD741C80092414800A24198014806B
:101360000C24198014800D24188014800F241980F7
:1013700040F20115148007241980102614801D8066
:101380004FF4865516801D801125158012251C806E
:10139000132715804FF488751D8017804FF4306730
:1013A0001F80292717802B271980178044F21007E8
:1013B0001F8050271780512719801780EF271F8023
:1013C00052271780532719801780EC371F8060271A
:1013D00017804FF41C571F80612717806A271880D9
:1013E000178080271980178081271980178082270E
:1013F0001980178083271980178084271980178008
:101400008527198017809027198017801E809226C3
:1014100016809326198016801880952010809720BA
:101420001D8010809820198010801980148040F24F
:1014300073121A800DE349F231339C4540F0BE80AF
:10144000E723038041F214030B804FF0010C4FF4AB
:101450008073A0F800C00B804FF4007307800B80EE
:1014600003F5636305800B800823038003F5FD7398
:101470000B80092303800A230C800C2703800D2393
:101480000C8007800C8003800F230C8011220380C6
:10149000132507234FF0120841F290690C80068053
:1014A0000C8002800B80A0F800800C8005800C80EE
:1014B0000680A1F8009040F227290280A1F8009050
:1014C000A0F800800F8005804FF400650D8029256D
:1014D00005800A802B2202800B220A8020220280B3
:1014E000212530220C8005800C80028031220C8066
:1014F0004FF48377028032220F80028035220C80E5
:1015000002804FF401720A803622028041F20A62A0
:101510000A80372202804FF0380802F5DA620A802A
:10152000A0F800800F80392707800A803C220280C3
:1015300040F202420A803D22028040F60F420A80B9
:101540005022028051220C800280EF220A80522217
:10155000028053220C800280EC320A8060220280DA
:101560004FF41C520A806A2761220280A1F800C051
:10157000078080270C80078081270C8007808227C6
:101580000C80078083270C80078084270C800780CD
:1015900085270C8007800C809024048092240E8084
:1015A00004804FF4C0640C8003800D8003800A80A7
:1015B000038003F5967380E00000026049F619137A
:1015C0009C457CD12823038006230B8001230480C3
:1015D0000B8006800C80038047F2EF230B804FF4D2
:1015E000C06307800B8046F6382305800B801123EB
:1015F000038046F674030B800F2303800B230C80BB
:10160000038045F208330B800C2303800D230D80EB
:1016100003800A230B800E2303804FF438530B8082
:10162000BE23A0F800800B80252303804FF40043E5
:101630000B80262303804FF4F0430B802723038085
:1016400078230B804E2303804F230C8003801223CA
:101650000C80038040F6D9030B80302303803123B4
:101660000C8003804FF482730B80322303804FF48D
:1016700080730B8040F205323424332303800A80C8
:10168000048040F205540C80352404800A80362200
:10169000028040F207720A80372202804FF44072C3
:1016A0000A803A2202804FF490520A803B22028044
:1016B0004FF400620A80072202800B80C9E141F2E8
:1016C00005539C4540F0298107234FF0120C4FF43D
:1016D0008E7203800C80A0F800C00A80A4220280D1
:1016E0004FF0080801224FF00F090A804FF00D0A51
:1016F000A0F80080A1F800904FF00A09A0F800902F
:10170000A1F80080A0F800A0A1F800804FF03008F8
:10171000A0F800804FF0310A40F20778A1F800806D
:10172000A0F800A04FF0320A0B80A0F800A040F211
:10173000036AA1F800A04FF0330AA0F800A04FF40C
:10174000E06B4FF0340AA1F800B0A0F800A00AF551
:10175000E77AA1F800A04FF0350AA0F800A04FF0FA
:10176000360A0F80A0F800A041F60F7AA1F800A079
:101770004FF0370AA0F800A04FF0380AA1F8008017
:10178000A0F800A04FF0390A0C80A0F800A04FF09C
:101790003A0A0C80A0F800A0A1F800804FF03B08A6
:1017A000A0F800804FF03C080C80A0F800804FF0BB
:1017B0003D080B80A0F800804FF017080C800380D4
:1017C0000A80A0F800800A8006804FF4BD560E8083
:1017D0001126068040F217260E804FF48F76A0F86F
:1017E00000C04FF470680E8013260680A1F80080B8
:1017F0004FF02A08A0F800804FF029080C80A0F8CC
:101800000080A1F80090A0F800C04FF49F7CA1F8E0
:1018100000C04FF0500CA0F800C04FF0510C0C80ED
:10182000A0F800C04FF0EF0CA1F800C04FF0520C30
:10183000A0F800C04FF0530C0C80A0F800C00CF1D1
:10184000EC0CA1F800C04FF0600CA0F800C04FF401
:101850001C5CA1F800C04FF06A084FF0610CA0F8C2
:1018600000C00A80A0F800804FF080080C80A0F82B
:1018700000804FF081080C80A0F800804FF08208B3
:101880000C80A0F800804FF083080C80A0F8008046
:101890004FF084080C80A0F800804FF085080C8081
:1018A000A0F800804FF090080C80A0F800800E8017
:1018B000922606804FF440760E80932606800526F9
:1018C0000E809526068097260C80068098260C8030
:1018D00006800C8002804FF480720A8002F57362E9
:1018E0000780A1F800B005800A80042202800C2243
:1018F0000C8002800F220C80028020220C8002804B
:1019000021220C8002800C8003800A800380A1F8D1
:1019100000C0038003F5B673CFE648F689139C45F3
:1019200040F0978001234AF6A40204800B800580D2
:101930000A800C2202800D220C80028040F60C02EC
:101940000A800E2202804FF42C520A80B022A0F8A6
:1019500000800A80038042F63F330B804FF4C0635F
:1019600007800B80112306800C80038046F27003F1
:101970000B800523038006230C80038016230C8034
:1019800003804EF61C730B801723038007230D8002
:10199000038003F596730B800B2303800F230C80C9
:1019A000038041230C80038042230C800380482362
:1019B0000C80038049230C804A220380F6330B807D
:1019C00002804B220C80028044220C8002804FF463
:1019D0006F420A804522028046220C8002800B80E2
:1019E0003023038040F207730B80312303803222BF
:1019F0004FF401730B80028033220B803425028068
:101A000040F202520A80058040F207550D803525CC
:101A1000058036250B8005800B80372303803A2311
:101A20000A8003803B2203F532730B8002800B8017
:101A30002323038024230C80038025230C80038030
:101A40004FF400430B804F2303804E230C80038010
:101A50000C8019B0BDE8F08F10B504460020014697
:101A6000FFF7BEFA22224FF0C0431A80034A4FF418
:101A70009633013B1480FCD110BD00BF0000026012
:101A8000EF2810B514460BD8B1F5A07F08D2FFF7A8
:101A9000A7FA4FF0C04322221A8003F500331C80BE
:101AA00010BD2DE9F74FC0EB020A0C46BDF830100F
:101AB000074650461D1B019100F014FB21F0004326
:101AC000194600F00FFE0646284600F00BFB21F0F9
:101AD0000043194600F006FEB04281466FF0010354
:101AE00021DD4FEA460BC0F1000803FB00F300269E
:101AF00016E0B8B2A1B2019A0093FFF7C1FF002D22
:101B0000009B01DB013400E0013C18EB0B0806D41C
:101B1000BAF1000F01DB013700E0013F98440136C4
:101B20004E45E6DB21E0C6F100084FEA400B734367
:101B30004FF0000917E0B8B2A1B2019A0093FFF785
:101B40009FFFBAF1000F009B01DB013700E0013F6E
:101B500018EB0B0805D4002D01DB013400E0013C3B
:101B6000984409F10109B145E5DBBDE8FE8F2DE997
:101B7000F04F85B083460C46684611469846BDF83E
:101B800038A0FFF7B1F800251DF805905F4607263D
:101B900049FA06F3DA074CBF424652463846214618
:101BA000013E0137FFF76CFF731CBFB2F0D1013566
:101BB0000134102DA4B2E7D105B0BDE8F08F2DE9B6
:101BC000F743BDF8288005460C4616461F4640F2EE
:101BD0002F1916F8012B284621463B46CDF80080E8
:101BE000FFF7C5FFE72D02D80835ADB207E04C4539
:101BF00003D81034A4B2002501E000242546337830
:101C0000002BE6D1BDE8FE8370B5092088B0012124
:101C1000FFF740F902200121FFF748F92023ADF832
:101C20001C3018238DF81F3007A9032320488DF896
:101C30001E30FEF7A9FC01211E48FEF705FD1E4BD4
:101C40001E4C1A681E4B0025B2FBF3F3013B1D4AE4
:101C50009BB25380ADF81030204640F2E73304A920
:101C6000ADF81430ADF81650ADF812508DF818508C
:101C7000FEF760FA6023ADF80030134B01261B8895
:101C800020466946ADF80630ADF80260ADF8085060
:101C9000FEF7DEFA20460821FEF747FB20463146D4
:101CA000FEF72FFB20463146FEF716FB08B070BD4D
:101CB000000C014000081A00000000200004004051
:101CC00040420F0078010020CC00002040F0BE60B0
:101CD000024B40F42020D860704700BF00ED00E0C8
:101CE000C37810B5E3B1144B4178DB688478DB43EB
:101CF000C3F30223C3F1040291400F22DA402240D1
:101D00000A430E4B01781201CB18D2B283F800239C
:101D100003780122590903F01F0312FA03F307E0C5
:101D200003780122590903F01F0312FA03F320314B
:101D3000024A42F8213010BD00ED00E000E100E071
:101D4000044B04281A680CBF42F0040222F004027B
:101D50001A60704710E000E07FB501A8FFF74AF86D
:101D60006FF00400FFF7ECFF002000F04DF8029A3E
:101D70000549064BB2FBF1F119704FF4FA51B2FB71
:101D8000F1F25A8007B000BD00127A007C010020F9
:101D900010B50F4C638858436FF07F43984228BFBB
:101DA000184600F017F8002000F01AF8012000F0A3
:101DB00017F8102000F034F801282071F9D16FF0E5
:101DC000010000F00DF80020BDE8104000F008B858
:101DD0007C010020014B5860704700BF10E000E01C
:101DE0000128084B03D11A6842F0010204E00230D6
:101DF00004D11A6822F001021A60704700229A602A
:101E0000704700BF10E000E0044B1A6810B142F0C8
:101E1000020201E022F002021A60704710E000E0C6
:101E2000C308022B054B0CBF1B68DB68012212FAAA
:101E300000F003420CBF00200120704710E000E0DA
:101E400081F0004102E000BF83F0004330B54FEA6B
:101E500041044FEA430594EA050F08BF90EA020FD8
:101E60001FBF54EA000C55EA020C7FEA645C7FEA6B
:101E7000655C00F0E2804FEA5454D4EB5555B8BF8E
:101E80006D420CDD2C4480EA020281EA030382EAFF
:101E9000000083EA010180EA020281EA0303362D91
:101EA00088BF30BD11F0004F4FEA01314FF4801C64
:101EB0004CEA113102D0404261EB410113F0004F76
:101EC0004FEA03334CEA133302D0524263EB43032D
:101ED00094EA050F00F0A780A4F10104D5F1200ECB
:101EE0000DDB02FA0EFC22FA05F2801841F1000126
:101EF00003FA0EF2801843FA05F359410EE0A5F1FA
:101F000020050EF1200E012A03FA0EFC28BF4CF02A
:101F1000020C43FA05F3C01851EBE37101F00045E0
:101F200007D54FF0000EDCF1000C7EEB00006EEBED
:101F30000101B1F5801F1BD3B1F5001F0CD3490877
:101F40005FEA30004FEA3C0C04F101044FEA4452CE
:101F500012F5800F80F09A80BCF1004F08BF5FEA55
:101F6000500C50F1000041EB045141EA050130BD35
:101F70005FEA4C0C404141EB010111F4801FA4F1D8
:101F80000104E9D191F0000F04BF01460020B1FA2D
:101F900081F308BF2033A3F10B03B3F120020CDA65
:101FA0000C3208DD02F1140CC2F10C0201FA0CF043
:101FB00021FA02F10CE002F11402D8BFC2F1200CA8
:101FC00001FA02F120FA0CFCDCBF41EA0C0190405E
:101FD000E41AA2BF01EB0451294330BD6FEA0404A7
:101FE0001F3C1CDA0C340EDC04F11404C4F1200292
:101FF00020FA04F001FA02F340EA030021FA04F3A4
:1020000045EA030130BDC4F10C04C4F1200220FAFA
:1020100002F001FA04F340EA0300294630BD21FA38
:1020200004F0294630BD94F0000F83F4801306BFFE
:1020300081F480110134013D4EE77FEA645C18BFF2
:102040007FEA655C29D094EA050F08BF90EA020F89
:1020500005D054EA000C04BF1946104630BD91EA81
:10206000030F1EBF0021002030BD5FEA545C05D184
:102070004000494128BF41F0004130BD14F58004C3
:102080003CBF01F5801130BD01F0004545F0FE4137
:1020900041F470014FF0000030BD7FEA645C1ABF6C
:1020A000194610467FEA655C1CBF0B46024650EAA3
:1020B000013406BF52EA033591EA030F41F40021CF
:1020C00030BD00BF90F0000F04BF0021704730B555
:1020D0004FF4806404F132044FF000054FF000012A
:1020E00050E700BF90F0000F04BF0021704730B5EB
:1020F0004FF4806404F1320410F0004548BF4042C0
:102100004FF000013EE700BF42004FEAE2014FEA14
:1021100031014FEA02701FBF12F07F4393F07F4FEF
:1021200081F06051704792F0000F14BF93F07F4F21
:10213000704730B54FF4607401F0004521F0004164
:1021400020E700BF50EA010208BF704730B54FF0EA
:1021500000050AE050EA010208BF704730B511F0EF
:10216000004502D5404261EB41014FF4806404F127
:1021700032045FEA915C3FF4DCAE4FF003025FEAA9
:10218000DC0C18BF03325FEADC0C18BF033202EB31
:10219000DC02C2F1200300FA03FC20FA02F001FA8B
:1021A00003FE40EA0E0021FA02F11444C1E600BF2A
:1021B00070B54FF0FF0C4CF4E06C1CEA11541DBFDD
:1021C0001CEA135594EA0C0F95EA0C0F00F0DEF8A8
:1021D0002C4481EA030621EA4C5123EA4C5350EA8D
:1021E000013518BF52EA033541F4801143F48013DE
:1021F00038D0A0FB02CE4FF00005E1FB02E506F06F
:102200000042E0FB03E54FF00006E1FB03569CF0C3
:10221000000F18BF4EF0010EA4F1FF04B6F5007FC9
:1022200064F5407404D25FEA4E0E6D4146EB06063B
:1022300042EAC62141EA55514FEAC52040EA5E50C4
:102240004FEACE2EB4F1FD0C88BFBCF5E06F1ED86E
:10225000BEF1004F08BF5FEA500E50F1000041EBA5
:10226000045170BD06F0004646EA010140EA020052
:1022700081EA0301B4EB5C04C2BFD4EB0C0541EA74
:10228000045170BD41F480114FF0000E013C00F389
:10229000AB8014F1360FDEBF002001F0004170BDAD
:1022A000C4F10004203C35DA0C341BDC04F11404C6
:1022B000C4F1200500FA05F320FA04F001FA05F252
:1022C00040EA020001F0004221F0004110EBD3701F
:1022D00021FA04F642EB06015EEA430E08BF20EA4B
:1022E000D37070BDC4F10C04C4F1200500FA04F3EE
:1022F00020FA05F001FA04F240EA020001F0004180
:1023000010EBD37041F100015EEA430E08BF20EAF2
:10231000D37070BDC4F1200500FA05F24EEA020E3A
:1023200020FA04F301FA05F243EA020321FA04F069
:1023300001F0004121FA04F220EA020000EBD37020
:102340005EEA430E08BF20EAD37070BD94F0000F20
:102350000FD101F00046400041EB010111F4801F54
:1023600008BF013CF7D041EA060195F0000F18BF05
:10237000704703F00046520043EB030313F4801F41
:1023800008BF013DF7D043EA0603704794EA0C0FFB
:102390000CEA135518BF95EA0C0F0CD050EA410611
:1023A00018BF52EA4306D1D181EA030101F000418E
:1023B0004FF0000070BD50EA410606BF10461946B6
:1023C00052EA430619D094EA0C0F02D150EA0136C2
:1023D00013D195EA0C0F05D152EA03361CBF104603
:1023E00019460AD181EA030101F0004141F0FE41A2
:1023F00041F470014FF0000070BD41F0FE4141F426
:10240000780170BD70B54FF0FF0C4CF4E06C1CEA25
:1024100011541DBF1CEA135594EA0C0F95EA0C0FDA
:1024200000F0A7F8A4EB050481EA030E52EA033595
:102430004FEA013100F088804FEA03334FF08055B6
:1024400045EA131343EA12634FEA022245EA1115E3
:1024500045EA10654FEA00260EF000419D4208BF94
:10246000964244F1FD0404F5407402D25B084FEA41
:102470003202B61A65EB03055B084FEA32024FF4ED
:1024800080104FF4002CB6EB020E75EB030E22BF4A
:10249000B61A754640EA0C005B084FEA3202B6EB0A
:1024A000020E75EB030E22BFB61A754640EA5C00B9
:1024B0005B084FEA3202B6EB020E75EB030E22BF49
:1024C000B61A754640EA9C005B084FEA3202B6EB4A
:1024D000020E75EB030E22BFB61A754640EADC0009
:1024E00055EA060E18D04FEA051545EA16754FEA6B
:1024F00006164FEAC30343EA52734FEAC2025FEA89
:102500001C1CC0D111F4801F0BD141EA00014FF017
:1025100000004FF0004CB6E711F4801F04BF0143E8
:102520000020B4F1FD0C88BFBCF5E06F3FF6AFAE04
:10253000B5EB030C04BFB6EB020C5FEA500C50F194
:10254000000041EB045170BD0EF0004E4EEA113117
:1025500014EB5C04C2BFD4EB0C0541EA045170BD1E
:1025600041F480114FF0000E013C90E645EA060E62
:102570008DE60CEA135594EA0C0F08BF95EA0C0F90
:102580003FF43BAF94EA0C0F0AD150EA01347FF4D8
:1025900034AF95EA0C0F7FF425AF104619462CE7AF
:1025A00095EA0C0F06D152EA03353FF4FDAE104612
:1025B000194622E750EA410618BF52EA43067FF463
:1025C000C5AE50EA41047FF40DAF52EA43057FF4F3
:1025D000EBAE12E74FF0FF3C06E000BF4FF0010CFE
:1025E00002E000BF4FF0010C4DF804CD4FEA410C62
:1025F0007FEA6C5C4FEA430C18BF7FEA6C5C1BD02F
:1026000001B050EA410C0CBF52EA430C91EA030FAF
:1026100002BF90EA020F0020704710F1000F91EA0C
:10262000030F58BF994208BF90422CBFD8176FEADA
:10263000E37040F0010070474FEA410C7FEA6C5CA8
:1026400002D150EA013C07D14FEA430C7FEA6C5CAF
:10265000D6D152EA033CD3D05DF8040B704700BFDB
:102660008446104662468C461946634600E000BF29
:1026700001B5FFF7B7FF002848BF10F1000F01BDFB
:102680004DF808EDFFF7F4FF0CBF012000205DF8C6
:1026900008FB00BF4DF808EDFFF7EAFF34BF01204B
:1026A00000205DF808FB00BF4DF808EDFFF7E0FFE4
:1026B00094BF012000205DF808FB00BF4DF808ED35
:1026C000FFF7CEFF94BF012000205DF808FB00BF9C
:1026D0004DF808EDFFF7C4FF34BF012000205DF87E
:1026E00008FB00BF4FEA410212F5001215D211D5C6
:1026F0006FF47873B3EB625212D94FEAC12343F0FF
:10270000004343EA505311F0004F23FA02F018BF80
:10271000404270474FF00000704750EA013005D149
:1027200011F0004008BF6FF0004070474FF000000C
:10273000704700BF0F2AF0B43AD941EA00039B0763
:1027400038D10C46034615462668103D1E60666863
:102750005E60A6689E60E6681034DE6010330F2D60
:10276000F2D8A2F1100424F00F0402F00F0210348A
:10277000032A00EB0403214411D90E461D461446DA
:1027800056F8047B043C032C45F8047BF8D8141F4E
:1027900024F00304043402F0030209191B192AB1BE
:1027A00011F8014B013A03F8014BF9D1F0BC704725
:1027B0000346F4E70346F3E738B58307044613D12D
:1027C0000368A3F1013222EA030313F0803F0BD127
:1027D000024652F8043F0430A3F1013525EA030311
:1027E00013F0803FF5D000E0204603782BB103467C
:1027F00013F8012F0130002AFAD100F003F8204627
:1028000038BD00BF80EA0102844612F0030F4FD1A9
:1028100011F0030F32D14DF8044D11F0040F51F8AF
:10282000043B0BD0A3F101329A4312F0803F04BF66
:102830004CF8043B51F8043B16D100BF51F8044B4F
:10284000A3F101329A4312F0803FA4F101320BD17F
:102850004CF8043BA24312F0803F04BF51F8043B04
:102860004CF8044BEAD023460CF8013B13F0FF0F61
:102870004FEA3323F8D15DF8044B704711F0010F94
:1028800006D011F8012B0CF8012B002A08BF704765
:1028900011F0020FBFD031F8022B12F0FF0F16BF5C
:1028A0002CF8022B8CF8002012F47F4FB3D1704724
:1028B00011F8012B0CF8012B002AF9D1704700BF49
:1028C00020F0030110F00300C0F1000051F8043BB8
:1028D00000F1040C4FEACC0C6FF000021CBF22FA8E
:1028E0000CF213434FF0010C4CEA0C2C4CEA0C4C4C
:1028F000A3EB0C0222EA030212EACC1204BF51F845
:10290000043B0430F4D013F0FF0F1FBF013013F469
:102910007F4F013013F47F0F18BF0130704700BFA5
:10292000F0B4002A44D041EA000313F003032BD192
:10293000032A29D904680D68AC4225D1043A37D05E
:10294000A4F1013525EA040414F0803F2ED10C4691
:10295000034610E050F8043F51F8044FA3F101374B
:10296000A34227EA030734462B4609D1043A1FD075
:1029700017F0803F23D11D1D261D032AEAD8D2B1AE
:10298000013A3146284600E0013A03780C78A34228
:1029900013D16AB153B110F8013F11F8014FA342AE
:1029A0000BD1012A0BD0013A002BF4D1184600E0DC
:1029B0001046F0BC70471B792479181BF9E70020FA
:1029C000F7E700BF41EA00039B0770B40D460446D9
:1029D0002AD1032A17D8A2B10E78531E04F8016B2E
:1029E0004EB122466BB111F8015F013B02F8015B69
:1029F0001446002DF6D123B10022013B04F8012B2F
:102A0000FBD170BC7047294655F8043BA3F1013651
:102A100026EA030616F0803FDDD1043A032A44F883
:102A2000043BF0D82946D6E70446D4E7315F31317C
:102A3000315F5F5F00003131315F315F315F315FA6
:102A40005F5F00003131315F315F3131315F315FC4
:102A50005F5F00003131315F315F315F5F5F0000E8
:102A6000315F5F5F0000315F315F3131315F315F76
:102A70005F5F00003131315F3131315F315F5F5F66
:102A80000000315F315F315F315F5F5F0000315FB8
:102A9000315F5F5F0000315F3131315F3131315F74
:102AA0003131315F5F5F00003131315F315F313192
:102AB000315F5F5F0000315F3131315F315F315F26
:102AC0005F5F00003131315F3131315F5F5F0000A6
:102AD0003131315F315F5F5F00003131315F313162
:102AE000315F3131315F5F5F0000315F3131315F24
:102AF0003131315F315F5F5F00003131315F313142
:102B0000315F315F3131315F5F5F0000315F313103
:102B1000315F315F5F5F0000315F315F315F5F5F69
:102B200000003131315F5F5F0000315F315F313173
:102B3000315F5F5F0000315F315F315F3131315FA5
:102B40005F5F0000315F3131315F3131315F5F5F95
:102B500000003131315F315F315F3131315F5F5FB3
:102B600000003131315F315F3131315F3131315FFF
:102B70005F5F00003131315F3131315F315F315F93
:102B80005F5F00005F5F5F5F5F5F0000200000002D
:102B900000802320202020202020202020202020F2
:102BA000202020202020006E6577206C65747465DD
:102BB0007220616464656400696E74657270726528
:102BC000740073796E746178206572726F7220314F
:102BD0000073796E746178206572726F72203200B2
:102BE00073796E746178206572726F722033005051
:102BF000544D206D6F727365206465636F646572F8
:102C0000004172747572205A6F63686E69616B2C33
:102C100020505752203230313200202020202020F6
:102C200020202020202020202020202020202020A4
:102C30002020000000000000000000000000000054
:102C4000000000000000183C3C3C18180018180058
:102C50000000000000006666660000000000000042
:102C600000000000000036367F3636367F363600EC
:102C70000000000018183C666030180C06663C180E
:102C8000180000000070D8DA760C18306E5B1B0E4E
:102C9000000000000000386C6C38606F66663B0016
:102CA00000000000000018181800000000000000DC
:102CB0000000000000000C181830303030301818B8
:102CC0000C00000000003018180C0C0C0C0C18182C
:102CD0003000000000000000361C7F1C36000000A1
:102CE000000000000000000018187E181800000006
:102CF000000000000000000000000000001C1C0C90
:102D0000180000000000000000007E00000000002D
:102D1000000000000000000000000000001C1C007B
:102D200000000000000006060C0C1818303060602F
:102D30000000000000001E333737333B3B331E00DA
:102D40000000000000000C1C7C0C0C0C0C0C0C0097
:102D50000000000000003C6666060C1830607E0033
:102D60000000000000003C6666061C0666663C002B
:102D70000000000000003030363636667F06060060
:102D80000000000000007E6060607C06060C780099
:102D90000000000000001C18307C666666663C007F
:102DA0000000000000007E060C0C181830303000C7
:102DB0000000000000003C6666763C6E66663C00E3
:102DC0000000000000003C666666663E0C18380095
:102DD00000000000000000001C1C0000001C1C0083
:102DE00000000000000000001C1C0000001C1C0C67
:102DF000180000000000060C18306030180C0600A7
:102E00000000000000000000007E007E00000000C6
:102E10000000000000006030180C060C1830600044
:102E20000000000000003C66660C1818001818002E
:102E30000000000000007EC3C3CFDBDBCFC07F00FB
:102E4000000000000000183C6666667E666666004C
:102E50000000000000007C6666667C6666667C009A
:102E60000000000000003C666660606066663C0032
:102E7000000000000000786C66666666666C78008C
:102E80000000000000007E6060607C6060607E008A
:102E90000000000000007E6060607C606060600098
:102EA0000000000000003C666660606E66663E00E2
:102EB000000000000000666666667E666666660064
:102EC0000000000000003C181818181818183C00E2
:102ED00000000000000006060606060666663C00C6
:102EE00000000000000066666C6C786C6C66660022
:102EF00000000000000060606060606060607E0054
:102F00000000000000006363776B6B6B636363001A
:102F10000000000000006363737B6F6763636300FE
:102F20000000000000003C666666666666663C005F
:102F30000000000000007C6666667C6060606000E7
:102F40000000000000003C666666666666663C0C33
:102F50000600000000007C6666667C6C66666600A3
:102F60000000000000003C666030180C06663C0063
:102F70000000000000007E18181818181818180013
:102F800000000000000066666666666666663C00D5
:102F9000000000000000666666666666663C180013
:102FA0000000000000006363636B6B6B3636360015
:102FB00000000000000066663418182C6666660083
:102FC000000000000000666666663C1818181800CD
:102FD0000000000000007E06060C183060607E00D5
:102FE0000000000000003C303030303030303030F5
:102FF000303C000000006060303018180C0C0606F1
:103000000000000000003C0C0C0C0C0C0C0C0C0C18
:103010000C3C0000183C66000000000000000000AE
:1030200000000000000000000000000000000000A0
:1030300000FF000000001818180000000000000049
:1030400000000000000000003C06063E66663E00F0
:1030500000000000000060607C66666666667C00BA
:1030600000000000000000003C66606060663C00FC
:1030700000000000000006063E66666666663E00CA
:1030800000000000000000003C66667E60603C00BE
:103090000000000000001E3030307E303030300044
:1030A00000000000000000003E66666666663E06A0
:1030B000067C0000000060607C66666666666600EE
:1030C00000000000001818007818181818187E0062
:1030D00000000000000C0C003C0C0C0C0C0C0C0C48
:1030E0000C7800000000606066666C786C666600B4
:1030F00000000000000078181818181818187E0032
:1031000000000000000000007E6B6B6B6B6B6300C7
:1031100000000000000000007C66666666666600CF
:1031200000000000000000003C66666666663C0029
:1031300000000000000000007C66666666667C6039
:1031400060600000000000003E66666666663E063F
:103150000606000000000000666E7060606060009F
:1031600000000000000000003E60603C06067C009D
:1031700000000000000030307E30303030301E0063
:1031800000000000000000006666666666663E009D
:10319000000000000000000066666666663C1800DD
:1031A0000000000000000000636B6B6B6B363600A4
:1031B000000000000000000066663C183C666600E7
:1031C00000000000000000006666666666663C0C53
:1031D00018F00000000000007E060C1830607E0031
:1031E0000000000000000C18181830603018181883
:1031F0000C000000000018181818181818181818D3
:10320000181800000000301818180C060C181818B0
:1032100030000000000071DB8E00000000000000A4
:03322000000000AB
:1032240000A24A04000000000000000001020304A0
:103234000607080914000000010000000100000056
:10324400E00700002C2A0008362A0008442A000857
:10325400542A0008602A0008662A0008742A000814
:10326400822A00088E2A0008962A0008A82A000844
:10327400B62A0008C42A0008D02A0008DA2A00085E
:10328400EA2A0008FA2A00080C2B0008182B000868
:10329400222B00082A2B0008362B0008442B000898
:1032A400522B0008622B0008742B0008222B000804
:1032B400842B00088C2B0008414243444546474870
:1032C400494A4B4C4D4E4F505152535455565758F2
:1032D400595A202D3D230000000000000102030480
:1032E400010203040607080902040608E8030000B3
:0400000508000000EF
:00000001FF
