:020000040800F2
:10000000440400209D0600080907000809070008AD
:100010000907000809070008090700080000000098
:1000200000000000000000000000000009070008B8
:100030000907000800000000090700080907000878
:100040000907000809070008090700080907000850
:100050000907000809070008090700080907000840
:100060000907000809070008090700080907000830
:100070000907000809070008090700080907000820
:100080000907000809070008090700080907000810
:100090000907000809070008090700080907000800
:1000A00009070008090700080907000809070008F0
:1000B00009070008090700080907000809070008E0
:1000C00009070008090700080907000809070008D0
:1000D00009070008090700080907000809070008C0
:1000E00009070008090700080907000809070008B0
:1000F00009070008090700080907000809070008A0
:10010000090700080907000809070008090700088F
:10011000090700080907000809070008090700087F
:10012000090700080907000809070008090700086F
:100130005FF808F180B485B000AF786039604FF0A7
:100140000003FB817B681B88FB817A684FF4305386
:10015000C4F201039A421FD07A684FF45053C4F29C
:1001600001039A4218D07B68B3F1804F14D07A68AB
:100170004FF48063C4F200039A420DD07A684FF4C2
:100180000063C4F200039A4206D07A684FF44063D9
:10019000C4F200039A4208D1FB8923F07003FB816B
:1001A0003B685A88FB891343FB817A684FF480537C
:1001B000C4F200039A420FD07A684FF4A053C4F2FD
:1001C00000039A4208D0FB8923F44073FB813B680B
:1001D000DA88FB891343FB817B68FA891A803B68C4
:1001E0009A887B689A853B681A887B681A857A6842
:1001F0004FF43053C4F201039A421BD07A684FF493
:100200005053C4F201039A4214D07A684FF48043E9
:10021000C4F201039A420DD07A684FF48843C4F2C5
:1002200001039A4206D07A684FF49043C4F2010366
:100230009A4204D13B681B7A1A467B681A867B680F
:100240004FF001029A8207F11407BD4680BC704747
:1002500080B485B000AF786039604FF000037B81D7
:100260004FF00003FB814FF00003BB817B681B8CC8
:100270009BB223F010039AB27B681A847B681B8CB4
:10028000FB817B689B88BB817B681B8B7B817B8927
:1002900023F4E0437B817B8923F440737B813B68BB
:1002A0001B884FEA03239AB27B8913437B81FB8926
:1002B00023F02003FB813B681B894FEA03139AB2AA
:1002C000FB891343FB813B685B884FEA03139AB2B7
:1002D000FB891343FB817A684FF43053C4F2010366
:1002E0009A4206D07A684FF45053C4F201039A42FE
:1002F0002FD1FB8923F08003FB813B685B894FEAA8
:1003000003139AB2FB891343FB81FB8923F040035B
:10031000FB813B689B884FEA03139AB2FB89134326
:10032000FB81BB8923F48063BB81BB8923F4006319
:10033000BB813B689B894FEA83039AB2BB89134315
:10034000BB813B68DB894FEA83039AB2BB891343C5
:10035000BB817B68BA899A807B687A891A833B68FB
:10036000DA887B681A877B68FA891A8407F1140790
:10037000BD4680BC704700BF80B483B000AF7860DA
:100380000B46FB70FB78002B08D07B681B889BB268
:1003900043F001039AB27B681A8007E07B681B88F0
:1003A0009BB223F001039AB27B681A8007F10C0715
:1003B000BD4680BC704700BF80B483B000AF78609A
:1003C0000B46FB70FB78002B08D07B681B889BB228
:1003D00043F080039AB27B681A8007E07B681B8831
:1003E0009BB223F080039AB27B681A8007F10C0756
:1003F000BD4680BC704700BF80B485B000AF786058
:100400000B467B804FF00003FB817B681B8BFB81DD
:10041000FB8923F40063FB817B884FEA03239AB2B4
:10042000FB891343FB817B68FA891A8307F1140760
:10043000BD4680BC704700BF80B500AF4FF480530D
:10044000C4F202034FF48052C4F20202126842F076
:1004500001021A604FF48052C4F202024FF480533A
:10046000C4F202035B6819464FF00003CFF6FF03A6
:100470000B4053604FF48053C4F202034FF4805298
:10048000C4F20202126822F0847222F480321A60EE
:100490004FF48053C4F202034FF48052C4F20202BC
:1004A000126822F480221A604FF48053C4F20203CF
:1004B0004FF48052C4F20202526822F4FE025A60E3
:1004C0004FF48053C4F202034FF41F029A6000F00D
:1004D00009F84FF46D43CEF200034FF000629A60CA
:1004E00080BD00BF80B500AF00F002F880BD00BF46
:1004F00080B483B000AF4FF000037B604FF0000387
:100500003B604FF48053C4F202034FF48052C4F2B4
:100510000202126842F480321A604FF48053C4F22F
:1005200002031B6803F400333B607B6803F10103A3
:100530007B603B68002B03D17B68B3F5A06FECD1E7
:100540004FF48053C4F202031B6803F40033002B02
:1005500003D04FF001033B6002E04FF000033B602B
:100560003B68012B40F094804FF40053C4F2020327
:100570004FF40052C4F20202126842F010021A60F4
:100580004FF40053C4F202034FF40052C4F20202CB
:10059000126822F003021A604FF40053C4F20203FF
:1005A0004FF40052C4F20202126842F002021A60D2
:1005B0004FF48053C4F202034FF48052C4F202029B
:1005C00052685A604FF48053C4F202034FF48052D1
:1005D000C4F2020252685A604FF48053C4F202031C
:1005E0004FF48052C4F20202526842F480625A60B0
:1005F0004FF48053C4F202034FF48052C4F202025B
:10060000526822F47C125A604FF48053C4F2020301
:100610004FF48052C4F20202526842F4E8125A6067
:100620004FF48053C4F202034FF48052C4F202022A
:10063000126842F080721A6000BF4FF48053C4F217
:1006400002031B6803F00073002BF6D04FF48053B5
:10065000C4F202034FF48052C4F20202526822F044
:1006600003025A604FF48053C4F202034FF48052E5
:10067000C4F20202526842F002025A6000BF4FF414
:100680008053C4F202035B6803F00C03082BF6D11D
:1006900007F10C07BD4680BC704700BF80B582B033
:1006A00000AF42F6A463C0F600037B6040F2000393
:1006B000C2F200033B600BE07B681A683B681A607B
:1006C0003B6803F104033B607B6803F104037B6038
:1006D0003A6840F23003C2F200039A42ECD3084871
:1006E00008494FF000028842B8BF40F8042BFADBFB
:1006F000FFF7A2FE00F0DEFA07F10807BD4680BD55
:10070000300000204400002080B400AFFEE700BFAE
:1007100080B483B000AF78604FF020437A681268ED
:10072000796848687968896808437968C9680843BE
:10073000796809690843796849690843796889696A
:1007400008437968C96908437968096A0843796880
:10075000496A08437968896A08437968C96A08431D
:100760007968096B014343F822107B689B68082B6A
:100770000DD14FF020437A6812684FF0204178681D
:10078000006851F8201041F0400143F822104FF06A
:1007900020437A68126802F101027968496B08689F
:1007A0007968496B49684FEA011108437968496BD8
:1007B00089684FEA012108437968496BC9684FEAA3
:1007C000014108437968496B09694FEA01510843BF
:1007D0007968496B49694FEA016108437968496B57
:1007E0008969014343F822107B68DB6AB3F5804FC7
:1007F00027D14FF48273CAF200037A6812687968CD
:10080000896B08687968896B49684FEA0111084368
:100810007968896B89684FEA012108437968896B97
:1008200009694FEA015108437968896B49694FEAC0
:10083000016108437968896B8969014343F8221093
:1008400009E04FF48273CAF200037A6812686FF00D
:10085000704143F8221007F10C07BD4680BC704779
:1008600080B483B000AF78600B46FB70FB78002B40
:100870000CD04FF020434FF02042796852F82120ED
:1008800042F001017A6843F822100FE04FF0204255
:100890004FF02043796853F8213019464FF6FE7324
:1008A000C0F20F030B40796842F8213007F10C07C2
:1008B000BD4680BC704700BF80B489B000AF78608F
:1008C00039604FF00003FB614FF000033B614FF0D4
:1008D0000003BB614FF00003FB604FF000037B613E
:1008E0004FF00003BB603B68DB7803F00F03FB6154
:1008F0003B68DB7803F01003002B04D03B689B7847
:10090000FA691343FB613B681B88DBB2002B4ED0B6
:100910007B681B687B614FF00003BB6141E0BB69F2
:100920004FF0010202FA03F3FB603B681B881A4692
:10093000FB6813403B613A69FB689A422DD1BB6961
:100940004FEA8303FB60FB684FF00F0202FA03F3E8
:10095000BB60BB686FEA03037A6913407B61FB6885
:10096000FA6902FA03F37A6913437B613B68DB7827
:10097000282B07D1BB694FF0010202FA03F27B6812
:100980005A610AE03B68DB78482B06D1BB694FF01F
:10099000010202FA03F27B681A61BB6903F10103E9
:1009A000BB61BB69072BBAD97B687A691A603B685F
:1009B0001B88FF2B53D97B685B687B614FF000037A
:1009C000BB6146E0BB6903F108034FF0010202FA84
:1009D00003F3FB603B681B881A46FB6813403B61CE
:1009E0003A69FB689A4230D1BB694FEA8303FB60E6
:1009F000FB684FF00F0202FA03F3BB60BB686FEABB
:100A000003037A6913407B61FB68FA6902FA03F316
:100A10007A6913437B613B68DB78282B08D1BB697B
:100A200003F108034FF0010202FA03F27B685A61F6
:100A30003B68DB78482B08D1BB6903F108034FF012
:100A4000010202FA03F27B681A61BB6903F1010338
:100A5000BB61BB69072BB5D97B687A695A6007F11E
:100A60002407BD4680BC704780B487B000AF786073
:100A70000B46FB704FF000033B614FF00003FB603F
:100A80004FF000037B614FF00003BB607B68002BDD
:100A900006DA4FF00003C4F20103DB697B6105E075
:100AA0004FF00003C4F201035B687B617B6803F4D1
:100AB00070234FEA1343BB607B684FEA03434FEA5E
:100AC00013433B617B6803F44013B3F5401F10D11F
:100AD0007B6923F070637B614FF00003C4F2010374
:100AE0004FF00002C4F20102526822F070625A60B4
:100AF00026E07B6803F48013002B10D0BB684FF016
:100B0000030202FA03F3FB60FB686FEA03037A69EE
:100B100013407B617B6943F070637B6110E07B680D
:100B20004FEA53534FEA03133A6902FA03F36FEAA9
:100B300003037A6913407B617B6943F070637B61D7
:100B4000FB78002B0AD07B684FEA53534FEA03131C
:100B50003A6902FA03F37A6913437B617B68002BDD
:100B600006DA4FF00003C4F201037A69DA6105E0A6
:100B70004FF00003C4F201037A695A6007F11C07C1
:100B8000BD4680BC704700BF80B586B002AF03464B
:100B9000FB71FB793B734FF000037B7340F2300332
:100BA000C2F200031B6899B240F21403C2F20003C0
:100BB0001B689AB240F23403C2F200031B689BB276
:100BC0006FEA030398B207F10C0300900846114640
:100BD0001A464FF0000301F00FFC40F23003C2F25E
:100BE00000031B6803F10F0240F23003C2F200035E
:100BF0001A6040F23003C2F200031B68F02B12DDD2
:100C000040F21403C2F200031B6803F10F0240F22A
:100C10001403C2F200031A6040F23003C2F2000370
:100C20004FF000021A6040F21403C2F200031B6886
:100C3000B3F5967F19DD40F23003C2F200034FF0A6
:100C400000021A6040F21403C2F200034FF01402D3
:100C50001A6040F23403C2F200031B6803F1010280
:100C600040F23403C2F200031A6007F11007BD46D8
:100C700080BD00BF80B582B000AF4FF008004FF0DC
:100C8000010100F08FF94FF00403BB804FF0040323
:100C9000FB714FF00303BB7107F104034FF4406095
:100CA000C4F201001946FFF707FE07F10807BD4629
:100CB00080BD00BF80B582B002AFFFF7BDFB01F081
:100CC0008BFC00F023FB01F0D3FB4FF6FF7001F02B
:100CD000E5FA4FF6FF7300934FF000004FF000016C
:100CE00042F68402C0F600024FF0000301F084FBDC
:100CF0004FF6FF7300934FF02D0040F2311142F692
:100D00009802C0F600024FF0000301F075FBFFF7F8
:100D1000B1FF00E000BF4FF44063C4F201039B68E1
:100D200003F00403002BF5D04FF06100FFF72CFF18
:100D30004FF00A0001F082FCECE700BF80B582B002
:100D400000AF78600B46FB70FB78A3F120034FEAFD
:100D5000031242F6B403C0F60003D3187A681146B2
:100D60001A464FF01003084611461A4601F048FD96
:100D700007F10807BD4680BD80B487B000AF78603A
:100D80004FF000037B614FF000033B614FF0000325
:100D9000FB604FF00003BB604FF48053C4F20203CA
:100DA0005B6803F00C037B617B69042B0AD0082B82
:100DB0000FD0002B4DD17A684FF49053C0F27A03D4
:100DC00013604DE07A684FF49053C0F27A031360D9
:100DD00046E04FF48053C4F202035B6803F47013DF
:100DE0003B614FF48053C4F202035B6803F4803329
:100DF000FB603B694FEA934303F102033B61FB68ED
:100E0000002B09D13A694FF41063C0F23D0303FB94
:100E100002F27B681A6023E04FF48053C4F20203AD
:100E20005B6803F40033002B09D03A694FF4106378
:100E3000C0F23D0303FB02F27B681A6010E03A69DE
:100E40004FF49053C0F27A0303FB02F27B681A60FE
:100E500006E07A684FF49053C0F27A03136000BF43
:100E60004FF48053C4F202035B6803F0F0037B612C
:100E70007B694FEA13137B6140F21803C2F200034F
:100E80007A699B181B78DBB2BB607B681A68BB6809
:100E900022FA03F27B685A604FF48053C4F20203D3
:100EA0005B6803F4E0637B617B694FEA13237B613A
:100EB00040F21803C2F200037A699B181B78DBB278
:100EC000BB607B685A68BB6822FA03F27B689A6051
:100ED0004FF48053C4F202035B6803F460537B61F8
:100EE0007B694FEAD3237B6140F21803C2F200030F
:100EF0007A699B181B78DBB2BB607B685A68BB6859
:100F000022FA03F27B68DA604FF48053C4F20203E2
:100F10005B6803F440437B617B694FEA93337B61F9
:100F200040F22803C2F200037A699B181B78DBB2F7
:100F3000BB607B68DA68BB68B2FBF3F27B681A615E
:100F400007F11C07BD4680BC704700BF80B483B06A
:100F500000AF78600B46FB70FB78002B0DD04FF490
:100F60008053C4F202034FF48052C4F20202526969
:100F700011467A680A435A610EE04FF48053C4F276
:100F800002034FF48052C4F20202526911467A6899
:100F90006FEA02020A405A6107F10C07BD4680BCA5
:100FA000704700BF80B483B000AF78600B46FB7021
:100FB000FB78002B0DD04FF48053C4F202034FF4A2
:100FC0008052C4F20202926911467A680A439A6119
:100FD0000EE04FF48053C4F202034FF48052C4F287
:100FE0000202926911467A686FEA02020A409A6127
:100FF00007F10C07BD4680BC704700BF80B483B0CA
:1010000000AF78600B46FB70FB78002B0DD04FF4DF
:101010008053C4F202034FF48052C4F20202D26938
:1010200011467A680A43DA610EE04FF48053C4F245
:1010300002034FF48052C4F20202D26911467A6868
:101040006FEA02020A40DA6107F10C07BD4680BC74
:10105000704700BF80B582B000AF4FF480704FF092
:101060000101FFF773FF4FF061004FF00101FFF73F
:1010700099FF4FF68073BB804FF00303BB714FF0B5
:101080001803FB7107F104034FF4C050C4F20100D0
:101090001946FFF711FC4CF6B373BB804FF0030306
:1010A000BB714FF01803FB7107F104034FF4A0501C
:1010B000C4F201001946FFF7FFFB07F10807BD4620
:1010C00080BD00BF80B596B000AF4FF01E033B60FF
:1010D0004FF000037B604FF01E03BB604FF0000336
:1010E000FB604FF000033B614FF000037B614FF06A
:1010F0000003BB614FF00003FB614FF000033B6254
:101100004FF000037B624FF01003BB624FF000030F
:10111000FB624FF000037B634FF00003BB634FF0B3
:101120000003FB634FF480533B644FF000037B6488
:101130004FF000033B634FF00003BB644FF000032C
:10114000FB643B463B6507F11C031846FFF7E0FADA
:101150004FF002033B604FF000037B604FF002034F
:10116000BB604FF00003FB604FF000033B614FF0AA
:1011700000037B614FF00003BB613B467B6507F1D9
:101180001C031846FFF7C4FA4FF000004FF00101AE
:10119000FFF766FB07F15807BD4680BD80B500AF7D
:1011A000FFF758FFFFF78EFF80BD00BF80B483B00C
:1011B00000AF02460B46FA71BB804FF0C043FA798C
:1011C00092B21A804FF00003C6F20203BA881A8066
:1011D00007F10C07BD4680BC704700BF80B483B0E8
:1011E00000AF0346FB714FF0C043FA7992B21A8008
:1011F0004FF00003C6F202031B889BB2184607F1AA
:101200000C07BD4680BC704780B400AF4FF0C043B0
:101210004FF022021A80BD4680BC704780B483B074
:1012200000AF0346FB804FF00003C6F20203FA88CA
:101230001A8007F10C07BD4680BC704780B582B0AC
:1012400000AF02460B46FA80BB8040F23803C2F280
:1012500000031A8848F689139A420CD1FB884FF094
:101260004E001946FFF7A2FFBB884FF04F0019460A
:10127000FFF79CFF21E040F23803C2F200031A8816
:1012800049F619139A420CD1FB884FF04E001946CB
:10129000FFF78CFFBB884FF04F001946FFF786FF22
:1012A0000BE0FB884FF020001946FFF77FFFBB885B
:1012B0004FF021001946FFF779FF07F10807BD46F7
:1012C00080BD00BF80B485B000AF0346FB800CE05A
:1012D0004FF00003FB8103E0FB8903F10103FB8175
:1012E000FA8942F20F739A42F6D9FB88002B0CBFA1
:1012F00000230123DBB2FA8802F1FF32FA80002BCF
:10130000E6D107F11407BD4680BC704780B500AF39
:10131000FFF744FF4FF00500FFF7D4FF4FF0000048
:10132000FFF75CFF03461A4640F23803C2F200039F
:101330001A8040F23803C2F200031A8849F22533BA
:101340009A4209D040F23803C2F200031A8849F2E7
:1013500028339A4240F06A814FF0E7004FF01001C5
:10136000FFF724FF4FF000004FF00101FFF71EFFD1
:101370004FF001004FF48071FFF718FF4FF00200AB
:101380004FF4E061FFF712FF4FF0030041F230012C
:10139000FFF70CFF4FF004004FF00001FFF706FFCE
:1013A0004FF0080040F20721FFF700FF4FF009005F
:1013B0004FF00001FFF7FAFE4FF00A004FF0000176
:1013C000FFF7F4FE4FF00C004FF00101FFF7EEFEC7
:1013D0004FF00D004FF00001FFF7E8FE4FF00F0057
:1013E0004FF00001FFF7E2FE4FF010004FF0000158
:1013F000FFF7DCFE4FF011004FF00701FFF7D6FEBC
:101400004FF012004FF00001FFF7D0FE4FF0130035
:101410004FF00001FFF7CAFE4FF00500FFF752FF43
:101420004FF0100041F29051FFF7C0FE4FF0110055
:1014300040F22721FFF7BAFE4FF00500FFF742FF09
:101440004FF012004FF09C01FFF7B0FE4FF0050087
:10145000FFF738FF4FF013004FF4C851FFF7A6FE17
:101460004FF029004FF02301FFF7A0FE4FF02B00B3
:101470004FF00E01FFF79AFE4FF00500FFF722FF35
:101480004FF020004FF00001FFF790FE4FF02100D9
:101490004FF00001FFF78AFE4FF00500FFF712FF43
:1014A0004FF030004FF00701FFF780FE4FF03100A2
:1014B00040F20771FFF77AFE4FF032004FF006015D
:1014C000FFF774FE4FF0350040F20471FFF76EFE37
:1014D0004FF0360041F60471FFF768FE4FF0370019
:1014E0004FF00401FFF762FE4FF038004FF00001AB
:1014F000FFF75CFE4FF0390040F20671FFF756FE31
:101500004FF03C0040F20171FFF750FE4FF03D00FC
:101510004FF00F01FFF74AFE4FF00500FFF7D2FE34
:101520004FF050004FF00001FFF740FE4FF0510028
:101530004FF0EF01FFF73AFE4FF052004FF000017D
:10154000FFF734FE4FF0530040F23F11FFF72EFE3D
:101550004FF060004FF42741FFF728FE4FF0610085
:101560004FF00101FFF722FE4FF06A004FF000013B
:10157000FFF71CFE4FF080004FF00001FFF716FE52
:101580004FF081004FF00001FFF710FE4FF0820096
:101590004FF00001FFF70AFE4FF083004FF000010B
:1015A000FFF704FE4FF084004FF00001FFF7FEFD4F
:1015B0004FF085004FF00001FFF7F8FD4FF090006D
:1015C0004FF01001FFF7F2FD4FF092004FF00001D5
:1015D000FFF7ECFD4FF093004FF00301FFF7E6FD3E
:1015E0004FF095004FF48871FFF7E0FD4FF0970042
:1015F0004FF00001FFF7DAFD4FF098004FF00001C7
:10160000FFF7D4FD4FF0070040F23311FFF7CEFD96
:101610004FF020004FF00001FFF7C8FD4FF0210010
:101620004FF00001FFF7C2FD00F033BE40F2380377
:10163000C2F200031A8849F220339A4208D040F2DD
:101640003803C2F200031B88B3F5134F40F0EE805D
:101650004FF000004FF00001FFF7A8FD4FF0010030
:101660004FF48071FFF7A2FD4FF002004FF4E061EC
:10167000FFF79CFD4FF0030041F21801FFF796FDC4
:101680004FF004004FF00001FFF790FD4FF008000D
:1016900040F20221FFF78AFD4FF009004FF00001F0
:1016A000FFF784FD4FF00A004FF00001FFF77EFDC9
:1016B0004FF00C004FF00101FFF778FD4FF00D00E7
:1016C0004FF00001FFF772FD4FF00F004FF00001E7
:1016D000FFF76CFD4FF00A00FFF7F4FD4FF0070035
:1016E00040F20111FFF762FD4FF00A00FFF7EAFD3B
:1016F0004FF010004FF48651FFF758FD4FF01100E6
:101700004FF00701FFF752FD4FF012004FF48871C0
:10171000FFF74CFD4FF013004FF43061FFF746FD2B
:101720004FF029004FF00001FFF740FD4FF02B0074
:1017300044F21001FFF73AFD4FF050004FF0000166
:10174000FFF734FD4FF051004FF0EF01FFF72EFD92
:101750004FF052004FF00001FFF728FD4FF053000B
:1017600040F23F11FFF722FD4FF060004FF41C5193
:10177000FFF71CFD4FF061004FF00101FFF716FD70
:101780004FF06A004FF00001FFF710FD4FF08000AE
:101790004FF00001FFF70AFD4FF081004FF000010C
:1017A000FFF704FD4FF082004FF00001FFF7FEFC51
:1017B0004FF083004FF00001FFF7F8FC4FF084007A
:1017C0004FF00001FFF7F2FC4FF085004FF00001F1
:1017D000FFF7ECFC4FF090004FF01001FFF7E6FC34
:1017E0004FF092004FF00001FFF7E0FC4FF0930044
:1017F0004FF00101FFF7DAFC4FF095004FF48871CC
:10180000FFF7D4FC4FF097004FF00001FFF7CEFC3C
:101810004FF098004FF00001FFF7C8FC4FF00700B1
:1018200040F27311FFF7C2FC00F033BD40F2380301
:10183000C2F200031A8849F231339A4240F04981DA
:101840004FF0E70041F21401FFF7B0FC4FF0010048
:101850004FF48071FFF7AAFC4FF002004FF40071C3
:10186000FFF7A4FC4FF0030041F23001FFF79EFCAC
:101870004FF0080040F20221FFF798FC4FF00900FA
:101880004FF00001FFF792FC4FF00A004FF000010B
:10189000FFF78CFC4FF00C004FF00001FFF786FCC7
:1018A0004FF00D004FF00001FFF780FC4FF00F00EC
:1018B0004FF00001FFF77AFC4FF010004FF00001ED
:1018C000FFF774FC4FF011004FF00701FFF76EFCBB
:1018D0004FF012004FF00001FFF768FC4FF01300CB
:1018E0004FF00001FFF762FC4FF01400FFF7EAFC35
:1018F0004FF0100041F29061FFF758FC4FF01100DB
:1019000040F22721FFF752FC4FF00500FFF7DAFC09
:101910004FF012004FF00C01FFF748FC4FF00500AC
:10192000FFF7D0FC4FF013004FF40061FFF73EFCCF
:101930004FF029004FF01101FFF738FC4FF02B005A
:101940004FF00B01FFF732FC4FF00500FFF7BAFC38
:101950004FF020004FF00001FFF728FC4FF021006E
:101960004FF00001FFF722FC4FF030004FF0000174
:10197000FFF71CFC4FF031004FF48371FFF716FCAA
:101980004FF032004FF00001FFF710FC4FF0350030
:101990004FF40171FFF70AFC4FF0360041F20A6183
:1019A000FFF704FC4FF0370040F20771FFF7FEFB32
:1019B0004FF038004FF48371FFF7F8FB4FF0390018
:1019C00040F20771FFF7F2FB4FF03C0040F202419A
:1019D000FFF7ECFB4FF03D0040F60F41FFF7E6FB51
:1019E0004FF050004FF00001FFF7E0FB4FF05100C7
:1019F0004FF0EF01FFF7DAFB4FF052004FF000011C
:101A0000FFF7D4FB4FF0530040F23F11FFF7CEFB3E
:101A10004FF060004FF41C51FFF7C8FB4FF061001E
:101A20004FF00101FFF7C2FB4FF06A004FF00001D9
:101A3000FFF7BCFB4FF080004FF00001FFF7B6FB53
:101A40004FF081004FF00001FFF7B0FB4FF0820034
:101A50004FF00001FFF7AAFB4FF083004FF00001A9
:101A6000FFF7A4FB4FF084004FF00001FFF79EFB4F
:101A70004FF085004FF00001FFF798FB4FF090000A
:101A80004FF01001FFF792FB4FF092004FF4C0614E
:101A9000FFF78CFB4FF007004FF02101FFF786FBAB
:101AA0004FF00500FFF70EFC4FF007004FF061010B
:101AB000FFF77CFB4FF00500FFF704FC4FF0070039
:101AC00040F23311FFF772FB4FF00500FFF7FAFB0E
:101AD000DFE340F23803C2F200031A8849F6191313
:101AE0009A4240F0B5804FF028004FF00601FFF712
:101AF0005DFB4FF000004FF00101FFF757FB4FF087
:101B000010004FF00001FFF751FB4FF0010047F2CA
:101B1000EF21FFF74BFB4FF002004FF4C061FFF7DE
:101B200045FB4FF0030046F63821FFF73FFB4FF02F
:101B3000110046F67401FFF739FB4FF00F004FF02C
:101B40000001FFF733FB4FF00B0045F20831FFF7C0
:101B50002DFB4FF00C004FF00301FFF727FB4FF078
:101B60000D004FF00A01FFF721FB4FF00E004FF47C
:101B70003851FFF71BFB4FF01E004FF0BE01FFF77F
:101B800015FB4FF025004FF40041FFF70FFB4FF01E
:101B900026004FF4F041FFF709FB4FF027004FF00C
:101BA0007801FFF703FB4FF04E004FF00001FFF705
:101BB000FDFA4FF04F004FF00001FFF7F7FA4FF03A
:101BC000120040F6D901FFF7F1FA4FF030004FF064
:101BD0000001FFF7EBFA4FF031004FF48271FFF78D
:101BE000E5FA4FF032004FF48071FFF7DFFA4FF063
:101BF000330040F20531FFF7D9FA4FF0340040F2DC
:101C00000551FFF7D3FA4FF0350040F20531FFF7E9
:101C1000CDFA4FF0360040F20771FFF7C7FA4FF0E8
:101C200037004FF44071FFF7C1FA4FF03A004FF41C
:101C30009051FFF7BBFA4FF03B004FF40061FFF704
:101C4000B5FA4FF007004FF03301FFF7AFFA20E38A
:101C500040F23803C2F200031A8841F205539A4257
:101C600040F07B814FF007004FF00001FFF79EFA34
:101C70004FF00500FFF726FB4FF012004FF48E7176
:101C8000FFF794FA4FF0A4004FF00101FFF78EFA2E
:101C90004FF008004FF00F01FFF788FA4FF00A00ED
:101CA0004FF00801FFF782FA4FF00D004FF00801E6
:101CB000FFF77CFA4FF0300040F20771FFF776FA39
:101CC0004FF031004FF00701FFF770FA4FF032008C
:101CD00040F20361FFF76AFA4FF033004FF4E0611E
:101CE000FFF764FA4FF0340040F20221FFF75EFA8A
:101CF0004FF035004FF00201FFF758FA4FF0360071
:101D000041F60F71FFF752FA4FF0370040F20771BA
:101D1000FFF74CFA4FF038004FF00001FFF746FA9A
:101D20004FF039004FF00001FFF740FA4FF03A0052
:101D300040F20771FFF73AFA4FF03B004FF0000115
:101D4000FFF734FA4FF03C004FF00701FFF72EFA8F
:101D50004FF03D004FF00001FFF728FA4FF005006B
:101D6000FFF7B0FA4FF007004FF00101FFF71EFA3E
:101D70004FF017004FF00101FFF718FA4FF0050080
:101D8000FFF7A0FA4FF010004FF4BD51FFF70EFA25
:101D90004FF0110040F21721FFF708FA4FF0120040
:101DA0004FF48F71FFF702FA4FF013004FF4706198
:101DB000FFF7FCF94FF02A004FF00001FFF7F6F9AA
:101DC0004FF029004FF00A01FFF7F0F94FF0120031
:101DD0004FF49F71FFF7EAF94FF050004FF0000108
:101DE000FFF7E4F94FF051004FF0EF01FFF7DEF994
:101DF0004FF052004FF00001FFF7D8F94FF05300B9
:101E000040F23F11FFF7D2F94FF060004FF41C5140
:101E1000FFF7CCF94FF061004FF00101FFF7C6F971
:101E20004FF06A004FF00001FFF7C0F94FF080005B
:101E30004FF00001FFF7BAF94FF081004FF00001B9
:101E4000FFF7B4F94FF082004FF00001FFF7AEF951
:101E50004FF083004FF00001FFF7A8F94FF0840026
:101E60004FF00001FFF7A2F94FF085004FF000019D
:101E7000FFF79CF94FF090004FF01301FFF796F930
:101E80004FF092004FF44071FFF790F94FF093003C
:101E90004FF00501FFF78AF94FF095004FF0000170
:101EA000FFF784F94FF097004FF00001FFF77EF93C
:101EB0004FF098004FF00001FFF778F94FF0010064
:101EC0004FF48071FFF772F94FF002004FF4E061B8
:101ED000FFF76CF94FF0030041F23001FFF766F9AC
:101EE0004FF004004FF00001FFF760F94FF00C00D5
:101EF0004FF00001FFF75AF94FF00F004FF00001CB
:101F0000FFF754F94FF020004FF00001FFF74EF9B2
:101F10004FF021004FF00001FFF748F94FF00700A4
:101F20004FF02101FFF742F94FF01400FFF7CAF913
:101F30004FF007004FF06101FFF738F94FF0140040
:101F4000FFF7C0F94FF0070040F27311FFF72EF9C9
:101F50004FF01400FFF7B6F99BE140F23803C2F2EC
:101F600000031A8848F689139A4240F092814FF094
:101F700000004FF00101FFF719F94FF00500FFF7DE
:101F8000A1F94FF003004AF6A401FFF70FF94FF053
:101F90000500FFF797F94FF00C004FF00001FFF735
:101FA00005F94FF00500FFF78DF94FF00D0040F6F1
:101FB0000C01FFF7FBF84FF00500FFF783F94FF036
:101FC0000E004FF42C51FFF7F1F84FF00500FFF72A
:101FD00079F94FF01E004FF0B001FFF7E7F84FF02E
:101FE0000500FFF76FF94FF0010042F63F31FFF7B0
:101FF000DDF84FF00500FFF765F94FF002004FF4F0
:10200000C061FFF7D3F84FF00500FFF75BF94FF021
:1020100010004FF00001FFF7C9F84FF00500FFF77F
:1020200051F94FF0110046F27001FFF7BFF84FF081
:102030000500FFF747F94FF005004FF00001FFF7EB
:10204000B5F84FF00500FFF73DF94FF006004FF0EF
:102050000001FFF7ABF84FF00500FFF733F94FF041
:1020600016004EF61C71FFF7A1F84FF00500FFF7C0
:1020700029F94FF017004FF00301FFF797F84FF0E1
:102080000500FFF71FF94FF0070040F23311FFF78B
:102090008DF84FF00500FFF715F94FF00B004FF0EA
:1020A0000001FFF783F84FF00500FFF70BF94FF041
:1020B0000F004FF00001FFF779F84FF00500FFF730
:1020C00001F94FF041004FF00001FFF76FF84FF0BA
:1020D0000500FFF7F7F84FF042004FF00001FFF75F
:1020E00065F84FF00500FFF7EDF84FF048004FF0AE
:1020F0000001FFF75BF84FF00500FFF7E3F84FF042
:10210000490040F23F11FFF751F84FF00500FFF78B
:10211000D9F84FF04A004FF00001FFF747F84FF0B1
:102120000500FFF7CFF84FF04B004FF00001FFF72D
:102130003DF84FF00500FFF7C5F84FF044004FF4AD
:102140006F41FFF733F84FF00500FFF7BBF84FF092
:1021500045004FF00001FFF729F84FF00500FFF7A9
:10216000B1F84FF0460040F23F11FFF71FF84FF073
:102170000500FFF7A7F84FF0300040F20771FFF7B6
:1021800015F84FF00500FFF79DF84FF031004FF4C0
:102190000171FFF70BF84FF00500FFF793F84FF0D0
:1021A00032004FF40171FFF701F84FF00500FFF71F
:1021B00089F84FF0330040F20251FEF7F7FF4FF07D
:1021C0000500FFF77FF84FF0340040F20751FEF7AB
:1021D000EDFF4FF00500FFF775F84FF035004FF4B5
:1021E0000171FEF7E3FF4FF00500FFF76BF84FF0CA
:1021F00036004FF40171FEF7D9FF4FF00500FFF7ED
:1022000061F84FF0370040F20251FEF7CFFF4FF078
:102210000500FFF757F84FF03A0040F20231FEF7A1
:10222000C5FF4FF00500FFF74DF84FF03B0040F2BF
:102230000231FEF7BBFF4FF00500FFF743F84FF008
:1022400023004FF00001FEF7B1FF4FF00500FFF74C
:1022500039F84FF024004FF00001FEF7A7FF4FF0D0
:102260000500FFF72FF84FF025004FF40041FEF76F
:102270009DFF4FF00500FFF725F84FF04F004FF09E
:102280000001FEF793FF4FF04E004FF00001FEF704
:102290008DFF4FF00500FFF715F880BD80B584B0C5
:1022A00000AF0346FB804FF00003FB604FF00000DF
:1022B0004FF00001FEF7C2FFFEF7A6FF4FF000034C
:1022C000FB6009E04FF00003C6F20203FA881A80AF
:1022D000FB6803F10103FB60FA6842F6FF33C0F2CA
:1022E00001039A42EED907F11007BD4680BD00BF39
:1022F00080B582B000AF13460246FA800A46BA8023
:102300007B80FB88EF2B11D8BA8840F23F139A42AA
:102310000CD8FA88BB8810461946FEF78FFFFEF7E7
:1023200073FF7B881846FEF779FF00E000BF07F1D6
:102330000807BD4680BD00BF80B588B000AFF880FB
:10234000B980FA703B804FF00003FB834FF000032D
:10235000BB834FF00003FB7607F10802FB781046C1
:102360001946FEF7EBFC4FF00003FB833DE0FB8BCF
:1023700007F12002D31813F8183CFB764FF0000346
:10238000BB832BE0FA7EBB8BC3F1070342FA03F356
:1023900003F00103DBB2002B0ED0FA88BB8BD318FD
:1023A00099B2BA88FB8BD3189AB23B88084611467B
:1023B0001A46FFF79DFF0DE0FA88BB8BD31899B240
:1023C000BA88FB8BD3189AB23B8D084611461A4641
:1023D000FFF78EFFBB8B03F10103BB83BB8B072B86
:1023E000D0D9FB8B03F10103FB83FB8B0F2BBED9F1
:1023F00007F12007BD4680BD90B589B002AFBA6035
:102400000246FA810A46BA81FB80BB681B78FB75DD
:10241000BB6803F10103BB60F889B989FA7DFB88C9
:102420003C8D0094FFF788FFFB89E72B04D8FB89DC
:1024300003F10803FB8112E0BA8940F22F139A429C
:1024400007D84FF00003FB81BB8903F11003BB8168
:1024500005E04FF00003FB814FF00003BB81BB6838
:102460001B78002BD1D107F11C07BD4690BD00BFE2
:1024700080B588B000AF4FF009004FF00101FEF7C2
:1024800091FD4FF002004FF00101FEF7B7FD4FF054
:102490002003BB834FF01803FB774FF00303BB7798
:1024A00007F11C034FF44060C4F201001946FEF727
:1024B00003FA4FF40060C0F21A004FF00101FEF77A
:1024C000D3FA40F20003C2F200031A684DF68363A8
:1024D000C4F21B33A3FB02134FEA93439BB203F1F5
:1024E000FF339AB240F23A03C2F200031A804FF06F
:1024F0000003FB804FF000037B804FF000033B7232
:1025000040F23A03C2F200031B883B8040F2E733FB
:10251000BB803B464FF48060C4F200001946FDF7D3
:1025200009FE4FF06003BB814FF00103FB8140F2D5
:102530002C03C2F200031B887B824FF00003BB8296
:1025400007F10C034FF48060C4F200001946FDF758
:102550007FFE4FF48060C4F200004FF00801FDF7E9
:102560004BFF4FF48060C4F200004FF00101FDF713
:1025700023FF4FF48060C4F200004FF00101FDF72B
:10258000FBFE07F12007BD4680BD00BF80B483B0CD
:1025900000AF78607B68042B0CD14EF21003CEF2B2
:1025A00000034EF21002CEF20002126842F0040262
:1025B0001A600BE04EF21003CEF200034EF210024E
:1025C000CEF20002126822F004021A6007F10C0732
:1025D000BD4680BC704700BF80B586B000AF07F134
:1025E00004031846FEF7C8FB6FF00400FFF7CEFFA8
:1025F0004FF0000000F0A4F8BA684DF68363C4F20F
:102600001B33A3FB02134FEA5353DAB240F23C03ED
:10261000C2F200031A70BA6844F6D353C1F26203DF
:10262000A3FB02134FEA53239AB240F23E03C2F2D5
:1026300000031A8007F11807BD4680BD80B584B03D
:1026400000AF0346FB8040F23E03C2F200031B884A
:10265000FA8802FB03F3FB60FA686FF07F439A424B
:1026600002D96FF07F43FB60F86800F027F84FF065
:10267000000000F033F84FF0010000F02FF84FF0A9
:10268000100000F083F803461A4640F24003C2F2FD
:1026900000031A7040F24003C2F200031B78012BC2
:1026A000EDD16FF0010000F019F84FF0000000F0DC
:1026B00015F807F11007BD4680BD00BF80B483B098
:1026C00000AF78604EF21003CEF200037A685A60D1
:1026D00007F10C07BD4680BC704700BF80B483B0D3
:1026E00000AF78607B68012B0CD14EF21003CEF264
:1026F00000034EF21002CEF20002126842F0010214
:102700001A6017E07B6813F1020F0CD14EF2100330
:10271000CEF200034EF21002CEF20002126822F056
:1027200001021A6006E04EF21003CEF200034FF0F1
:1027300000029A6007F10C07BD4680BC704700BFDD
:1027400080B483B000AF0346FB71FB79002B0CD043
:102750004EF21003CEF200034EF21002CEF200024F
:10276000126842F002021A600BE04EF21003CEF241
:1027700000034EF21002CEF20002126822F00202B2
:102780001A6007F10C07BD4680BC704780B487B063
:1027900000AF0346FB714FF000037B614FF0000375
:1027A000FB604FF00003FB74FB794FEAD303DBB20D
:1027B000FB60FB68022B06D14EF21003CEF2000341
:1027C0001B687B6105E04EF21003CEF20003DB686C
:1027D0007B61FB797A6922FA03F303F00103DBB230
:1027E000002B03D04FF00103FB7402E04FF0000315
:1027F000FB74FB7C184607F11C07BD4680BC704784
:102800000F2AF0B43AD941EA00039B0738D10C46AD
:10281000034615462668103D1E6066685E60A66821
:102820009E60E6681034DE6010330F2DF2D8A2F1FE
:10283000100424F00F0402F00F021034032A00EBFE
:102840000403214411D90E461D46144656F8047B54
:10285000043C032C45F8047BF8D8141F24F003042F
:10286000043402F0030209191B192AB111F8014BB3
:10287000013A03F8014BF9D1F0BC70470346F4E785
:102880000346F3E750544D206D6F72736520646505
:10289000636F6465720000004172747572205A6F34
:1028A00063686E69616B2C20505752203230313290
:1028B0000000000000000000000000000000000018
:1028C00000000000000000183C3C3C1818001818DC
:1028D00000000000000000666666000000000000C6
:1028E0000000000000000036367F3636367F363670
:1028F000000000000018183C666030180C06663CAA
:1029000018180000000070D8DA760C18306E5B1BC7
:102910000E000000000000386C6C38606F66663B8B
:10292000000000000000001818180000000000005F
:10293000000000000000000C181830303030301853
:10294000180C00000000003018180C0C0C0C0C18AF
:10295000183000000000000000361C7F1C3600000C
:1029600000000000000000000018187E1818000089
:1029700000000000000000000000000000001C1C1F
:102980000C180000000000000000007E00000000A5
:1029900000000000000000000000000000001C1CFF
:1029A0000000000000000006060C0C181830306013
:1029B000600000000000001E333737333B3B331EFE
:1029C000000000000000000C1C7C0C0C0C0C0C0C1B
:1029D000000000000000003C6666060C1830607EB7
:1029E000000000000000003C6666061C0666663CAF
:1029F000000000000000003030363636667F0606E4
:102A0000000000000000007E6060607C06060C781C
:102A1000000000000000001C18307C666666663C02
:102A2000000000000000007E060C0C18183030304A
:102A3000000000000000003C6666763C6E66663C66
:102A4000000000000000003C666666663E0C183818
:102A50000000000000000000001C1C0000001C1C06
:102A60000000000000000000001C1C0000001C1CF6
:102A70000C180000000000060C18306030180C061E
:102A8000000000000000000000007E007E0000004A
:102A9000000000000000006030180C060C183060C8
:102AA000000000000000003C66660C1818001818B2
:102AB000000000000000007EC3C3CFDBDBCFC07F7F
:102AC00000000000000000183C6666667E666666D0
:102AD000000000000000007C6666667C6666667C1E
:102AE000000000000000003C666660606066663CB6
:102AF00000000000000000786C66666666666C7810
:102B0000000000000000007E6060607C6060607E0D
:102B1000000000000000007E6060607C606060601B
:102B2000000000000000003C666660606E66663E65
:102B300000000000000000666666667E66666666E7
:102B4000000000000000003C181818181818183C65
:102B50000000000000000006060606060666663C49
:102B60000000000000000066666C6C786C6C6666A5
:102B70000000000000000060606060606060607ED7
:102B8000000000000000006363776B6B6B6363639E
:102B9000000000000000006363737B6F6763636382
:102BA000000000000000003C666666666666663CE3
:102BB000000000000000007C6666667C606060606B
:102BC000000000000000003C666666666666663CC3
:102BD0000C0600000000007C6666667C6C6666661B
:102BE000000000000000003C666030180C06663CE7
:102BF000000000000000007E181818181818181897
:102C00000000000000000066666666666666663C58
:102C100000000000000000666666666666663C1896
:102C2000000000000000006363636B6B6B36363698
:102C30000000000000000066663418182C66666606
:102C400000000000000000666666663C1818181850
:102C5000000000000000007E06060C183060607E58
:102C6000000000000000003C3030303030303030A8
:102C700030303C000000006060303018180C0C064A
:102C8000060000000000003C0C0C0C0C0C0C0C0CA2
:102C90000C0C3C0000183C66000000000000000026
:102CA0000000000000000000000000000000000024
:102CB0000000FF00000000181818000000000000CD
:102CC0000000000000000000003C06063E66663E74
:102CD0000000000000000060607C66666666667C3E
:102CE0000000000000000000003C66606060663C80
:102CF0000000000000000006063E66666666663E4E
:102D00000000000000000000003C66667E60603C41
:102D1000000000000000001E3030307E30303030C7
:102D20000000000000000000003E66666666663E29
:102D300006067C0000000060607C6666666666666B
:102D40000000000000001818007818181818187EE5
:102D50000000000000000C0C003C0C0C0C0C0C0CD7
:102D60000C0C7800000000606066666C786C66662B
:102D70000000000000000078181818181818187EB5
:102D80000000000000000000007E6B6B6B6B6B634B
:102D90000000000000000000007C66666666666653
:102DA0000000000000000000003C66666666663CAD
:102DB0000000000000000000007C66666666667C1D
:102DC0006060600000000000003E66666666663E69
:102DD000060606000000000000666E70606060601D
:102DE0000000000000000000003E60603C06067C21
:102DF0000000000000000030307E30303030301EE7
:102E00000000000000000000006666666666663E20
:102E100000000000000000000066666666663C1860
:102E2000000000000000000000636B6B6B6B363627
:102E300000000000000000000066663C183C66666A
:102E40000000000000000000006666666666663CE2
:102E50000C18F00000000000007E060C1830607EA8
:102E6000000000000000000C18181830603018181E
:102E7000180C000000000018181818181818181856
:102E800018181800000000301818180C060C181834
:102E90001830000000000071DB8E00000000000010
:042EA000000000002E
:102EA40000A24A0400000000000000000102030424
:102EB40006070809140000000000000001020304D2
:102EC400010203040607080902040608E8030000D7
:0400000508000000EF
:00000001FF
