:020000040800F2
:100000009C060020550400089D0400089D0400087B
:100010009D0400089D0400089D04000800000000E5
:100020000000000000000000000000009D04000827
:100030009D040008000000009D0400089D040008C5
:100040009D0400089D0400089D0400089D0400080C
:100050009D0400089D0400089D0400089D040008FC
:10006000410800089D0400089D0400089D04000844
:100070009D0400089D0400089D0400089D040008DC
:100080009D0400089D0400089D0400089D040008CC
:100090009D0400089D0400089D0400089D040008BC
:1000A0009D0400089D0400089D04000879080008CC
:1000B0009D0400089D0400089D0400089D0400089C
:1000C0009D0400089D0400089D0400089D0400088C
:1000D0009D0400089D0400089D0400089D0400087C
:1000E0009D0400089D0400089D0400089D0400086C
:1000F0009D0400089D0400089D0400089D0400085C
:100100009D0400089D0400089D0400089D0400084B
:100110009D0400089D0400089D0400089D0400083B
:100120009D0400089D0400089D0400089D0400082B
:100130005FF808F1224A038890429BB212D002F580
:10014000006290420ED0B0F1804F0BD0A2F59832F1
:10015000904207D002F58062904203D002F580629F
:10016000904203D14A8823F070031343154A90420A
:1001700008D002F58062904204D023F44073CA880C
:100180009BB2134303808B8883850B8803850C4BBC
:1001900098420FD003F5006398420BD003F54063FB
:1001A000984207D003F58063984203D003F580633B
:1001B000984201D10B7A038601238382704700BFE6
:1001C000002C014000100040038C70B523F00103A7
:1001D0001B041B0C0384038C8488028B0D8822F083
:1001E00073021204120C2A434E880D8923F0020375
:1001F0001B0435431B0CADB22B43144DA4B2A842D3
:100200000FD005F50065A8420BD005F54065A84262
:1002100007D005F58065A84203D005F58065A842A2
:100220000ED14D8923F008032B438D8823F004035E
:100230002B43CE898D8924F440743543ADB22C43D1
:1002400084800283CA888286038470BD002C0140AA
:10025000038C30B523F010031B041B0C0384038CA8
:100260008288048B0D8824F4E6442404240C23F0B3
:10027000200344EA05241B040D891B0C43EA0513E3
:100280004D8892B243EA0513124DA4B2A8429BB224
:1002900003D005F50065A84215D14D8923F08003F0
:1002A0009BB243EA05134FF6BF751D408B8822F4BD
:1002B000406245EA03138D899BB242EA8502CD89EB
:1002C00042EA850292B28280CA880483028703844C
:1002D00030BD00BF002C0140038819B19BB243F030
:1002E000010303E023F001031B041B0C0380704790
:1002F00083899BB20AB1194301E023EA010181819C
:100300007047038819B19BB243F0800303E023F0E8
:1003100080031B041B0C03807047038B23F008032E
:100320001B041B0C0B4303837047038B23F40063F4
:100330001B041B0C43EA01239BB203837047038A0F
:10034000828911EA030092B203D011420CBF00204F
:1003500001207047C94389B201827047394B82B08E
:100360001A6842F001021A605968374A0A405A6016
:100370001A6822F0847222F480321A601A6822F419
:1003800080221A605A6822F4FE025A604FF41F025B
:100390009A600022009201921A6842F480321A6038
:1003A0001A6802F400320192009A01320092019A16
:1003B0001AB9009AB2F5A06FF2D1224B1B6813F460
:1003C000003318BF01230193019B012B33D11F4B35
:1003D0001A6842F010021A601A6822F003021A60CA
:1003E0001A6842F002021A60A3F580535A685A60F4
:1003F0005A685A605A6842F480625A605A6822F415
:100400007C125A605A6842F4E8125A601A6842F044
:1004100080721A6019680B4A8901FBD5536823F072
:1004200003035360536843F002035360536803F0BF
:100430000C03082BFAD1064B4FF000629A6002B011
:10044000704700BF001002400000FFF8002002408B
:1004500000ED00E008B50C4A0C4B0D4903E052F8E2
:10046000040B43F8040B8B42F9D30A480A494FF0B6
:1004700000028842B8BF40F8042BFADBFFF76EFF9A
:10048000BDE8084000F0ECBAA424000800000020F9
:10049000CC000020CC000020A0020020FEE70000DD
:1004A00070B584684568C36825431D430369C16A04
:1004B0001D43436902681D438369082C45EA03050F
:1004C000C36945EA0305036A45EA0305436A45EA49
:1004D0000305836A45EA0305036B45EA010545EA1E
:1004E00003054FF0204343F8225005D153F8224032
:1004F00044F0400443F82240436B541C9E691D683D
:10050000B1F5804F46EA05055E6845EA06159E6826
:1005100045EA0625DE6845EA06451E695B6945EA47
:10052000065545EA03654FF0204343F8245010D1A7
:10053000836B986919680143586841EA001198680B
:1005400041EA002118695B6941EA005141EA03610F
:1005500001E06FF07041024B43F8221070BD00BF04
:10056000040100A04FF0204321B153F8202042F0B5
:10057000010203E053F82010024A0A4043F8202009
:10058000704700BFFEFF0F00CB782DE9F04303F06A
:100590000F02DB0648BF8B780E8848BF1A4316F05F
:1005A000FF0F1FD0046800234FF001084FF00F0C1D
:1005B00008FA03F707EA0605BD420FD19F000CFABF
:1005C00007F912FA07F724EA09043C43CF78282FE9
:1005D00001D1456102E0482F08BF05610133082BB6
:1005E000E6D104600E88FF2E21D9446800234FF025
:1005F00001084FF00F0C03F1080708FA07F707EAA4
:100600000605BD420FD19F000CFA07F912FA07F751
:1006100024EA09043C43CF78282F01D1456102E048
:10062000482F08BF05610133082BE4D14460BDE8C1
:10063000F083C36819420CBF0020012070470AB143
:10064000016170474161704730B5174B002800F4D5
:100650004014B4BFDB695B68B4F5401F82B207D1B8
:10066000114C23F07063656825F0706565600FE0DC
:10067000C40205D5C0F30344032515FA04F403E0CE
:10068000440D240112FA04F423EA040343F07063D6
:1006900019B1410D09018A401343034A0028B4BF30
:1006A000D361536030BD00BF0000014001F0030280
:1006B00030B592000F24944010FA02F2074B8908DB
:1006C000023153F8215025EA040443F8214053F83D
:1006D0002140224343F8212030BD00BF00000140EB
:1006E00010B500F005FA4FF4803000F021FA00F068
:1006F000F9FA0128044624D1002000F057FA00201E
:1007000000F068FA4FF4806000F05AFA022000F01E
:100710004BFB102000F052FB4FF480304FF4E011FF
:1007200000F022FA204600F029FA392000F0C4FA3D
:100730000028FAD0022000F027FA00F02FFA08284B
:10074000FBD140F659000121BDE8104000F09CBAF1
:1007500037B5082001210E4D00F096FA042303243A
:100760000DEB03012846ADF804308DF807308DF805
:100770000640FFF709FF1023284601A9ADF8044001
:100780008DF807308DF80640FFF7FEFE3EBD00BF36
:10079000000C014030B54FF4C06085B001F02AF97B
:1007A00001240823002503A88DF80C308DF80D5086
:1007B0008DF80E508DF80F4001F026F920460221E9
:1007C000FFF774FF0423019301A810238DF809306B
:1007D0008DF808508DF80A4000F09AFA1B2303A800
:1007E0008DF80C308DF80D508DF80E408DF80F40BF
:1007F00001F00AF905B030BD2DE9F0470C46BDF80F
:1008000020800546871801EB030A08E0B1B248468C
:10081000424601F02FF801365645F7DB0135BD425F
:1008200003DA26461FFA85F9F6E7BDE8F0870000EF
:10083000024BDA6882F00202DA607047000C014075
:1008400008B5042000F0A0FA98B101210948FFF78B
:10085000F0FEC0F1010010F0FF0F14BF00220122D2
:1008600004480121FFF7EBFE0420BDE8084000F03A
:1008700095BA08BD000C014010B519480221FFF7D8
:100880005EFD60B316480221FFF764FD154B5C68FE
:10089000462394FBF3F203FB12432BB1482394FB52
:1008A000F3F203FB12430BB9FFF7C2FF502394FB93
:1008B000F3F203FB12432BB1582394FBF3F203FB37
:1008C000124323B9084BDA6882F00102DA60582C2F
:1008D000044B01D101225A605A6801325A6010BD9E
:1008E000002C014014000020000C014070B5184C91
:1008F00088B04FF6FF730026ADF8183020460E235F
:1009000005A90125ADF81430ADF81A60ADF81660F0
:10091000FFF710FC4FF40043204601A9ADF80A3060
:10092000ADF80460ADF80650ADF80C60FFF74CFC74
:1009300020463146FFF7F1FC204602212A46FFF708
:10094000D7FC20462946FFF7C7FC08B070BD00BFA2
:10095000002C01402DE9F041044608460D4601F007
:10096000F9F880462668294630464246274601F077
:1009700021F918B133780434002BF3D13846BDE89F
:10098000F08100002DE9F043002385B02021314D96
:1009900005F17602995401331B2BF8D1002485F818
:1009A00090400F2064214FF6FF73009400F09BFFEE
:1009B000202385F8763085F877408DF80D40009437
:1009C000254C04201421F022C323FFF715FFA4F1C6
:1009D0000C08A14632E0C9EB04039B1008EB0302AC
:1009E00092F880205F1C8DF80C200E2293FBF2F60B
:1009F00002FB163397FBF2F778210F264F435E4335
:100A0000BFB21436B6B2381D00254FF6FF7380B260
:100A1000314603AA8DF80D500095173700F063FF9B
:100A200054F8041B032203A801F016F9B8B23146AA
:100A300003AA4FF6FF73009500F055FF20460749C3
:100A4000FFF788FF036804461B78002BC3D105B06D
:100A5000BDE8F083CC000020200000207F020020B1
:100A600007B5194B0024194D1C7020232B706B7097
:100A7000FFF774FC01F004F800F0CAF900F058FF29
:100A8000204600F0E3FEFFF72BFEFFF761FEFFF7C5
:100A900081FEFFF72BFF204621460D4A4FF6FF73DC
:100AA000009400F020FF2D2040F23111094A4FF64A
:100AB000FF73009400F017FF07490422284601F055
:100AC00007F8FFF75FFFFEE77E0100207E020020AF
:100AD000831E0008951E0008AE1E0008034B203937
:100AE00003EB0111102200F0F3BF00BFB21E00089B
:100AF0000D4B1A6842F001021A6059680B4A0A400D
:100B00005A601A6822F0847222F480321A601A68DD
:100B100022F480221A605A6822F4FE025A604FF4CE
:100B20001F029A60704700BF001002400000FFF8EB
:100B30000C4BB0F5803F1A6822F480321A601A68B4
:100B400022F480221A6003D0B0F5802F09D104E08E
:100B50001A6842F480321A6070471A6842F4A02280
:100B60001A60704700100240034B5A6822F47C124E
:100B7000104308435860704700100240014B186052
:100B8000704700BF60004242034B5A6822F00302E4
:100B900010435860704700BF00100240024B586875
:100BA00000F00C00704700BF00100240034B5A6871
:100BB00022F0F00210435860704700BF001002405E
:100BC000034B5A6822F4E06210435860704700BF3C
:100BD00000100240034B5A6822F4605242EAC000FF
:100BE000586070470010024010B51D4B5A6802F063
:100BF0000C02042A01D0082A02D01A4B03600EE02E
:100C00005A685968C2F383420232C90302D55B684D
:100C10009B0301D5144B00E0124B5A430260104A6B
:100C2000124B51680468C1F30311595C34FA01F1A5
:100C300041605468C4F302241C5D31FA04F48460FA
:100C40005468C4F3C2241C5DE140C1605268C2F321
:100C500081329B181B7CB1FBF3F1016110BD00BF19
:100C60000010024000127A0000093D00B40000208C
:100C7000044B5A6909B1104301E022EA00005861AF
:100C8000704700BF00100240044B9A6909B110433D
:100C900001E022EA00009861704700BF00100240A6
:100CA000044BDA6909B1104301E022EA0000D8617F
:100CB000704700BF001002404209012A084B01D1D1
:100CC0001B6803E0022A0CBF1B6A5B6A012200F06A
:100CD0001F0012FA00F003420CBF002001207047F1
:100CE0000010024007B5002301933120FFF7E4FF15
:100CF000019B01330193019BB3F5A06F01D0002844
:100D0000F3D03120FFF7D8FF003018BF01200EBD0F
:100D1000837910B5002B29D01A4B01681C68CA438F
:100D200014401C605C6822405A60027902F18042E3
:100D300002F5823214682143116002689C68D14335
:100D40000C409C60DC682140D9604179102906D1B3
:100D5000996811439960D9680A43DA6010BD01F1BE
:100D6000804303F5823319680A4308E00379016878
:100D700003F1804303F582331A6822EA01021A6004
:100D800010BD00BF00040140034B5B6918420CBF5B
:100D900000200120704700BF00040140014B586152
:100DA000704700BF00040140034B1A6802F038028C
:100DB00010431860704700BF00200240044B1A68BF
:100DC00022F010021A601A6810431860704700BFC2
:100DD000002002400C4B30B51C8848F689139C4219
:100DE0004FF0C042094B03D049F61915AC4204D16B
:100DF0004E24148018804F2003E020241480188093
:100E000021201080198030BD740100200000026094
:100E10002DE9F04F012199B04FF48070FFF728FFC2
:100E200061200121FFF730FF18244FF6807303255E
:100E3000AF4817A9ADF85C308DF85F408DF85E5073
:100E4000FFF7A2FB17A94CF6B373AA48ADF85C30C4
:100E50008DF85F404FF01E08002410260DF1400968
:100E60008DF85E50FFF790FB4FF4805301A80A9372
:100E70000227CDF840801194CDF848801394149443
:100E8000159416940194029403940496059407947F
:100E9000089409940B9406940C940D94CDF8389012
:100EA000FFF7FEFA01A81097119412971394149467
:100EB00015941694CDF83C90FFF7F2FA01212046E4
:100EC000FFF750FB4FF0C0408B490480B1F800C0E1
:100ED0008A4B1FFA8CFCA3F800C049F225339C45CD
:100EE00002460B4604D049F22839CC4540F008812F
:100EF000E72111801020002101244FF48075188013
:100F000011801C8014801D80022515804FF4E0653F
:100F10001D80032605F5136516804FF0040C1D8017
:100F20000825A2F800C01980158040F207251D8011
:100F3000092515800A25198015800C251980158032
:100F40000D251C800F2715804FF0110A07254FF043
:100F500012094FF0130841F2905B19801780198035
:100F600010801980A2F800A01D80A2F800901980BE
:100F7000A2F8008019801080A3F800B0A2F800A0A9
:100F800040F2272AA3F800A0A2F800904FF09C0995
:100F9000A3F80090A2F800804FF4C858A3F800808E
:100FA0004FF02908A2F800804FF02308A3F8008032
:100FB0004FF02B08A2F800804FF00E08A3F8008035
:100FC0004FF020094FF021084FF0300AA2F80090AE
:100FD0001980A2F800801980A2F800A04FF0310A11
:100FE0001D80A2F800A040F2077AA3F800A04FF0FD
:100FF000320AA2F800A04FF0060AA3F800A04FF0B2
:10100000350AA2F800A040F2047AA3F800A04FF03D
:10101000360AA2F800A041F6047AA3F800A04FF027
:10102000370AA2F800A0A3F800C04FF0380CA2F8CD
:1010300000C04FF0390C1980A2F800C040F2067CC5
:10104000A3F800C04FF03C0CA2F800C040F2017CB5
:10105000A3F800C04FF03D0CA2F800C01F8050273D
:101060001780512719801780EF271F80522717807C
:10107000532719801780EC371F80602717804FF4A3
:1010800027471F80612717801C806A2414808024D2
:10109000198014808124198014808224198014807E
:1010A0008324198014808424198014808524198055
:1010B000148090241980148018809220108093202E
:1010C0001980108095201E8010804FF48870188041
:1010D000972010809820198010809B3019801580EF
:1010E0001880A2F800901980A2F800801980AAE365
:1010F000001801400014014000000260740100204B
:1011000049F220339C4503D0BCF5134F40F08D804D
:10111000A64B4FF0C042002101204FF48074118093
:10112000198010801C80022414804FF4E0641C801D
:101130000324148041F218041C8004241480082421
:101140001980148004F5FD741C80092414800A247D
:10115000198014800C24198014800D2418801480A8
:101160000F24198040F201151480072419801026DD
:1011700014801D804FF4865516801D801125158022
:1011800012251C80132715804FF488751D80178049
:101190004FF430671F80292717802B27198017806D
:1011A00044F210071F80502717805127198017809D
:1011B000EF271F8052271780532719801780EC379D
:1011C0001F80602717804FF41C571F8061271780EE
:1011D0006A27188017808027198017808127198037
:1011E000178082271980178083271980178084270A
:1011F00019801780852719801780902719801780FC
:101200001E809226168093261980168018809520BD
:10121000108097201D8010809820198010801980E0
:10122000148040F273121A800DE349F231339C4569
:1012300040F0BE80E723038041F214030B804FF09F
:10124000010C4FF48073A0F800C00B804FF40073C2
:1012500007800B8003F5636305800B800823038000
:1012600003F5FD730B80092303800A230C800C27F0
:1012700003800D230C8007800C8003800F230C80DB
:1012800011220380132507234FF0120841F29069C1
:101290000C8006800C8002800B80A0F800800C80FF
:1012A00005800C800680A1F8009040F2272902807A
:1012B000A1F80090A0F800800F8005804FF4006531
:1012C0000D80292505800A802B2202800B220A80AE
:1012D00020220280212530220C8005800C80028093
:1012E00031220C804FF48377028032220F800280FB
:1012F00035220C8002804FF401720A80362202806F
:1013000041F20A620A80372202804FF0380802F563
:10131000DA620A80A0F800800F80392707800A80EF
:101320003C22028040F202420A803D22028040F6C6
:101330000F420A805022028051220C800280EF224C
:101340000A805222028053220C800280EC320A80F2
:10135000602202804FF41C520A806A2761220280B8
:10136000A1F800C0078080270C80078081270C80AF
:10137000078082270C80078083270C8007808427C2
:101380000C80078085270C8007800C8090240480C7
:1013900092240E8004804FF4C0640C8003800D8082
:1013A00003800A80038003F5967380E000000260EA
:1013B00049F619139C457CD12823038006230B8012
:1013C000012304800B8006800C80038047F2EF230A
:1013D0000B804FF4C06307800B8046F638230580EE
:1013E0000B801123038046F674030B800F230380C8
:1013F0000B230C80038045F208330B800C23038001
:101400000D230D8003800A230B800E2303804FF4ED
:1014100038530B80BE23A0F800800B802523038067
:101420004FF400430B80262303804FF4F0430B80DE
:101430002723038078230B804E2303804F230C80C7
:10144000038012230C80038040F6D9030B803023E5
:10145000038031230C8003804FF482730B8032238E
:1014600003804FF480730B8040F205323424332321
:1014700003800A80048040F205540C8035240480E7
:101480000A803622028040F207720A8037220280E8
:101490004FF440720A803A2202804FF490520A8040
:1014A0003B2202804FF400620A80072202800B80F8
:1014B000C9E141F205539C4540F0298107234FF0D3
:1014C000120C4FF48E7203800C80A0F800C00A80CA
:1014D000A42202804FF0080801224FF00F090A8071
:1014E0004FF00D0AA0F80080A1F800904FF00A0913
:1014F000A0F80090A1F80080A0F800A0A1F800805A
:101500004FF03008A0F800804FF0310A40F2077821
:10151000A1F80080A0F800A04FF0320A0B80A0F8DC
:1015200000A040F2036AA1F800A04FF0330AA0F82F
:1015300000A04FF4E06B4FF0340AA1F800B0A0F81F
:1015400000A00AF5E77AA1F800A04FF0350AA0F84C
:1015500000A04FF0360A0F80A0F800A041F60F7AE5
:10156000A1F800A04FF0370AA0F800A04FF0380A09
:10157000A1F80080A0F800A04FF0390A0C80A0F874
:1015800000A04FF03A0A0C80A0F800A0A1F800805B
:101590004FF03B08A0F800804FF03C080C80A0F80A
:1015A00000804FF03D080B80A0F800804FF0170836
:1015B0000C8003800A80A0F800800A8006804FF427
:1015C000BD560E801126068040F217260E804FF47D
:1015D0008F76A0F800C04FF470680E801326068046
:1015E000A1F800804FF02A08A0F800804FF02908E9
:1015F0000C80A0F80080A1F80090A0F800C04FF483
:101600009F7CA1F800C04FF0500CA0F800C04FF034
:10161000510C0C80A0F800C04FF0EF0CA1F800C0F6
:101620004FF0520CA0F800C04FF0530C0C80A0F803
:1016300000C00CF1EC0CA1F800C04FF0600CA0F859
:1016400000C04FF41C5CA1F800C04FF06A084FF0D6
:10165000610CA0F800C00A80A0F800804FF080085C
:101660000C80A0F800804FF081080C80A0F800806A
:101670004FF082080C80A0F800804FF083080C80A7
:10168000A0F800804FF084080C80A0F800804FF094
:1016900085080C80A0F800804FF090080C80A0F81E
:1016A00000800E80922606804FF440760E809326AE
:1016B000068005260E809526068097260C800680DB
:1016C00098260C8006800C8002804FF480720A807D
:1016D00002F573620780A1F800B005800A80042239
:1016E00002800C220C8002800F220C8002802022BB
:1016F0000C80028021220C8002800C8003800A80F2
:101700000380A1F800C0038003F5B673CFE648F666
:1017100089139C4540F0978001234AF6A402048077
:101720000B8005800A800C2202800D220C80028032
:1017300040F60C020A800E2202804FF42C520A80DE
:10174000B022A0F800800A80038042F63F330B806D
:101750004FF4C06307800B80112306800C80038048
:1017600046F270030B800523038006230C80038060
:1017700016230C8003804EF61C730B801723038006
:1017800007230D80038003F596730B800B230380E2
:101790000F230C80038041230C80038042230C80A4
:1017A000038048230C80038049230C804A22038055
:1017B000F6330B8002804B220C80028044220C8086
:1017C00002804FF46F420A804522028046220C803C
:1017D00002800B803023038040F207730B8031239B
:1017E000038032224FF401730B80028033220B807E
:1017F0003425028040F202520A80058040F20755EB
:101800000D803525058036250B8005800B8037231C
:1018100003803A230A8003803B2203F532730B8056
:1018200002800B802323038024230C800380252344
:101830000C8003804FF400430B804F2303804E2322
:101840000C8003800C8019B0BDE8F08F10B5044601
:1018500000200146FFF7BEFA22224FF0C0431A8053
:10186000034A4FF49633013B1480FCD110BD00BFF6
:1018700000000260EF2810B514460BD8B1F5A07F28
:1018800008D2FFF7A7FA4FF0C04322221A8003F5CF
:1018900000331C8010BD2DE9F04F85B083460C4607
:1018A000684611469846BDF838A0FFF717F900259D
:1018B0001DF805905F46072649FA06F3DA074CBF84
:1018C0004246524638462146013E0137FFF7D2FFD5
:1018D000731CBFB2F0D101350134102DA4B2E7D191
:1018E00005B0BDE8F08F2DE9F743BDF82880054627
:1018F0000C4616461F4640F22F1916F8012B2846B3
:1019000021463B46CDF80080FFF7C5FFE72D02D802
:101910000835ADB207E04C4503D81034A4B2002519
:1019200001E0002425463378002BE6D1BDE8FE8394
:1019300070B5092088B00121FFF7A6F90220012126
:10194000FFF7AEF92023ADF81C3018238DF81F30B7
:1019500007A9032320488DF81E30FEF715FE01214C
:101960001E48FEF771FE1E4B1E4C1A681E4B0025CA
:10197000B2FBF3F3013B1D4A9BB25380ADF810302C
:10198000204640F2E73304A9ADF81430ADF8165004
:10199000ADF812508DF81850FEF7CCFB6023ADF86F
:1019A0000030134B01261B8820466946ADF80630EF
:1019B000ADF80260ADF80850FEF74AFC2046082159
:1019C000FEF7B3FC20463146FEF79BFC204631462D
:1019D000FEF782FC08B070BD000C014000081A0040
:1019E000000000200004004040420F00740100206D
:1019F000C800002040F0BE60024B40F42020D860B8
:101A0000704700BF00ED00E0C37810B5E3B1144BA0
:101A10004178DB688478DB43C3F30223C3F104021B
:101A200091400F22DA4022400A430E4B0178120106
:101A3000CB18D2B283F8002303780122590903F0AE
:101A40001F0312FA03F307E003780122590903F098
:101A50001F0312FA03F32031024A42F8213010BD6D
:101A600000ED00E000E100E0044B04281A680CBF20
:101A700042F0040222F004021A60704710E000E015
:101A80007FB501A8FFF7B0F86FF00400FFF7ECFF97
:101A9000002000F011F8029A0549064BB2FBF1F163
:101AA00019704FF4FA51B2FBF1F25A8007B000BD41
:101AB00000127A0078010020044B1A6810B142F03D
:101AC000020201E022F002021A60704710E000E01A
:101AD0000F2AF0B43AD941EA00039B0738D10C46EB
:101AE000034615462668103D1E6066685E60A6685F
:101AF0009E60E6681034DE6010330F2DF2D8A2F13C
:101B0000100424F00F0402F00F021034032A00EB3B
:101B10000403214411D90E461D46144656F8047B91
:101B2000043C032C45F8047BF8D8141F24F003046C
:101B3000043402F0030209191B192AB111F8014BF0
:101B4000013A03F8014BF9D1F0BC70470346F4E7C2
:101B50000346F3E720F0030110F00300C0F100009A
:101B600051F8043B00F1040C4FEACC0C6FF000027A
:101B70001CBF22FA0CF213434FF0010C4CEA0C2C60
:101B80004CEA0C4CA3EB0C0222EA030212EACC1240
:101B900004BF51F8043B0430F4D013F0FF0F1FBF13
:101BA000013013F47F4F013013F47F0F18BF013061
:101BB000704700BFF0B4002A44D041EA000313F09C
:101BC00003032BD1032A29D904680D68AC4225D11F
:101BD000043A37D0A4F1013525EA040414F0803F1B
:101BE0002ED10C46034610E050F8043F51F8044F44
:101BF000A3F10137A34227EA030734462B4609D154
:101C0000043A1FD017F0803F23D11D1D261D032A43
:101C1000EAD8D2B1013A3146284600E0013A0378C9
:101C20000C78A34213D16AB153B110F8013F11F8F7
:101C3000014FA3420BD1012A0BD0013A002BF4D162
:101C4000184600E01046F0BC70471B792479181B39
:101C5000F9E70020F7E700BF41EA00039B0770B4F3
:101C60000D4604462AD1032A17D8A2B10E78531E76
:101C700004F8016B4EB122466BB111F8015F013BD4
:101C800002F8015B1446002DF6D123B10022013B7E
:101C900004F8012BFBD170BC7047294655F8043B72
:101CA000A3F1013626EA030616F0803FDDD1043A9F
:101CB000032A44F8043BF0D82946D6E70446D4E783
:101CC000315F3131315F5F5F00003131315F315F52
:101CD000315F315F5F5F00003131315F315F313142
:101CE000315F315F5F5F00003131315F315F315F04
:101CF0005F5F0000315F5F5F0000315F315F313156
:101D0000315F315F5F5F00003131315F3131315F11
:101D1000315F5F5F0000315F315F315F315F5F5F77
:101D20000000315F315F5F5F0000315F3131315F53
:101D30003131315F3131315F5F5F00003131315F0F
:101D4000315F3131315F5F5F0000315F3131315FD1
:101D5000315F315F5F5F00003131315F3131315FC1
:101D60005F5F00003131315F315F5F5F0000313113
:101D7000315F3131315F3131315F5F5F0000315FA1
:101D80003131315F3131315F315F5F5F00003131BF
:101D9000315F3131315F315F3131315F5F5F000081
:101DA000315F3131315F315F5F5F0000315F315F43
:101DB000315F5F5F00003131315F5F5F0000315F95
:101DC000315F3131315F5F5F0000315F315F315F23
:101DD0003131315F5F5F0000315F3131315F31316F
:101DE000315F5F5F00003131315F315F315F313131
:101DF000315F5F5F00003131315F315F3131315F21
:101E00003131315F5F5F00003131315F3131315F3E
:101E1000315F315F5F5F00005F5F5F5F5F5F0000AA
:101E200020000000008023202020202020202020CF
:101E300020202020202020202020006E6577206C8C
:101E4000657474657220616464656400696E7465AC
:101E500072707265740073796E7461782065727245
:101E60006F7220310073796E746178206572726FC1
:101E70007220320073796E746178206572726F72AD
:101E800020330050544D206D6F727365206465637C
:101E90006F646572004172747572205A6F63686E68
:101EA00069616B2C20505752203230313200203182
:101EB00031000000000000000000000000000000F1
:101EC0000000000000183C3C3C18180018180000E6
:101ED00000000000006666660000000000000000D0
:101EE000000000000036367F3636367F363600007A
:101EF00000000018183C666030180C06663C181884
:101F00000000000070D8DA760C18306E5B1B0E00F3
:101F10000000000000386C6C38606F66663B0000A3
:101F20000000000000181818000000000000000069
:101F300000000000000C1818303030303018180C39
:101F400000000000003018180C0C0C0C0C18183095
:101F500000000000000000361C7F1C36000000005E
:101F60000000000000000018187E18180000000093
:101F70000000000000000000000000001C1C0C1805
:101F80000000000000000000007E000000000000D3
:101F90000000000000000000000000001C1C000009
:101FA000000000000006060C0C18183030606000BD
:101FB00000000000001E333737333B3B331E000068
:101FC00000000000000C1C7C0C0C0C0C0C0C000025
:101FD00000000000003C6666060C1830607E0000C1
:101FE00000000000003C6666061C0666663C0000B9
:101FF00000000000003030363636667F06060000EE
:1020000000000000007E6060607C06060C78000026
:1020100000000000001C18307C666666663C00000C
:1020200000000000007E060C0C1818303030000054
:1020300000000000003C6666763C6E66663C000070
:1020400000000000003C666666663E0C1838000022
:10205000000000000000001C1C0000001C1C000010
:10206000000000000000001C1C0000001C1C0C18DC
:102070000000000000060C18306030180C0600004C
:1020800000000000000000007E007E000000000054
:1020900000000000006030180C060C1830600000D2
:1020A00000000000003C66660C18180018180000BC
:1020B00000000000007EC3C3CFDBDBCFC07F000089
:1020C0000000000000183C6666667E6666660000DA
:1020D00000000000007C6666667C6666667C000028
:1020E00000000000003C666660606066663C0000C0
:1020F0000000000000786C66666666666C7800001A
:1021000000000000007E6060607C6060607E000017
:1021100000000000007E6060607C60606060000025
:1021200000000000003C666660606E66663E00006F
:102130000000000000666666667E666666660000F1
:1021400000000000003C181818181818183C00006F
:10215000000000000006060606060666663C000053
:10216000000000000066666C6C786C6C66660000AF
:10217000000000000060606060606060607E0000E1
:1021800000000000006363776B6B6B6363630000A8
:1021900000000000006363737B6F6763636300008C
:1021A00000000000003C666666666666663C0000ED
:1021B00000000000007C6666667C60606060000075
:1021C00000000000003C666666666666663C0C06BB
:1021D00000000000007C6666667C6C666666000037
:1021E00000000000003C666030180C06663C0000F1
:1021F00000000000007E18181818181818180000A1
:10220000000000000066666666666666663C000062
:102210000000000000666666666666663C180000A0
:1022200000000000006363636B6B6B3636360000A2
:10223000000000000066663418182C666666000010
:102240000000000000666666663C1818181800005A
:1022500000000000007E06060C183060607E000062
:1022600000000000003C3030303030303030303052
:102270003C000000006060303018180C0C060600AE
:1022800000000000003C0C0C0C0C0C0C0C0C0C0C9A
:102290003C0000183C660000000000000000000048
:1022A000000000000000000000000000000000002E
:1022B000FF000000001818180000000000000000D7
:1022C000000000000000003C06063E66663E00007E
:1022D000000000000060607C66666666667C000048
:1022E000000000000000003C66606060663C00008A
:1022F000000000000006063E66666666663E000058
:10230000000000000000003C66667E60603C00004B
:1023100000000000001E3030307E303030300000D1
:10232000000000000000003E66666666663E060627
:102330007C0000000060607C666666666666000081
:10234000000000001818007818181818187E0000EF
:10235000000000000C0C003C0C0C0C0C0C0C0C0CC9
:102360007800000000606066666C786C666600004D
:10237000000000000078181818181818187E0000BF
:10238000000000000000007E6B6B6B6B6B63000055
:10239000000000000000007C66666666666600005D
:1023A000000000000000003C66666666663C0000B7
:1023B000000000000000007C66666666667C606067
:1023C000600000000000003E66666666663E060627
:1023D00006000000000000666E7060606060000033
:1023E000000000000000003E60603C06067C00002B
:1023F000000000000030307E30303030301E0000F1
:10240000000000000000006666666666663E00002A
:102410000000000000000066666666663C1800006A
:1024200000000000000000636B6B6B6B3636000031
:102430000000000000000066663C183C6666000074
:10244000000000000000006666666666663C0C18C8
:10245000F00000000000007E060C1830607E0000D6
:1024600000000000000C1818183060301818180C04
:102470000000000000181818181818181818181854
:102480001800000000301818180C060C1818183026
:10249000000000000071DB8E000000000000000062
:0224A00000003A
:1024A40000A24A040000000000000000010203042E
:1024B400060708091400000001000000E0070000FE
:1024C400C01C0008CA1C0008D81C0008E81C00082E
:1024D400F41C0008FA1C0008081D0008161D00085A
:1024E400221D00082A1D00083C1D00084A1D000882
:1024F400581D0008641D00086E1D00087E1D00089C
:102504008E1D0008A01D0008AC1D0008B61D0008A3
:10251400BE1D0008CA1D0008D81D0008E61D0008DD
:10252400F61D0008081E0008B61D0008181E000845
:10253400201E00084142434445464748494A4B4C03
:102544004D4E4F505152535455565758595A202DA9
:102554003D23000000000000010203040102030403
:0C2564000607080902040608E80300004E
:0400000508000000EF
:00000001FF
